:1000000000000420DD0300000904000009040000D2
:1000100009040000090400000904000009040000AC
:10002000090400000904000009040000090400009C
:100030000904000009040000A7E600006BE90000C5
:10004000090400000904000009040000090400007C
:10005000090400000904000009040000090400006C
:100060000904000009040000F9EC0000AD050000DF
:10007000090400000904000009040000090400004C
:10008000090400000904000005ED00000904000057
:10009000090400000904000009040000090400002C
:1000A000090400000904000009040000090400001C
:1000B000090400000904000009040000090400000C
:1000C00009040000090400000904000009040000FC
:1000D00009040000090400000904000009040000EC
:1000E00009040000090400000904000009040000DC
:1000F00009040000090400000904000009040000CC
:1001000009040000090400000904000010B5054CB2
:10011000237833B9044B13B10448AFF300800123B3
:10012000237010BDC40200200000000070500100C8
:1001300008B5034B1BB103490348AFF3008008BD6A
:1001400000000000C802002070500100154B002B79
:1001500008BF134B9D46A3F5803A00218B460F46FE
:100160001348144A121A10F078F80F4B002B00D0E5
:1001700098470E4B002B00D0984700200021040028
:100180000D000D48002802D00C48AFF3008010F09D
:1001900015F8200029000EF077FE0FF0FBFF00BFDE
:1001A0000000080000000420000000000000000023
:1001B000C4020020AC9200200000000000000000FB
:1001C00080B582B000AF0121104805F03BF8012155
:1001D0000F4805F037F800237B600FE00D4A7B687D
:1001E00012F833000B4A7B68DB0013445968002384
:1001F000042206F0B1FF7B6801337B607B68012B32
:10020000ECDD002318460837BD4680BD404105009F
:1002100000350A000014010080B582B000AF00F084
:10022000F5F878600A4B1B68094A43F08073136045
:10023000084B00221A60084B1B68074A43F0010371
:100240001360786804F04EFC00BF0837BD4680BDDF
:10025000FCED00E0041000E0001000E080B483B08A
:1002600000AF054B1B687B607B6818460C37BD46AA
:100270005DF8047B704700BF041000E0B0B586B0A5
:1002800000AF786000F0C2F803464FF00004C7E901
:1002900004347B681C464FF00005D7E904010B4A83
:1002A0004FF000030FF0F6FD02460B4620462946AC
:1002B0000FF0F0FD03460C46C7E90234D7E90234DB
:1002C000184621461837BD46B0BD00BF40420F005A
:1002D00080B400AF044BDB6C1B0EDBB21846BD468E
:1002E0005DF8047B704700BFB081E00F80B582B03D
:1002F00000AF164B01225A64FFF7EAFF0346FB7179
:10030000FB79002B0CD1124B4AF6E8521A60114BC4
:100310001B68104A43F0040313600D4B00221A605F
:10032000FB79012B05D80C4B1B680B4A43F4005397
:1003300013600A4B1B6A23F44413084A43F48813DE
:10034000136200BF0837BD4680BD00BF00000E40ED
:1003500090310E4098310E4064310E4000400E4006
:1003600080B582B000AF11237B60FFF7BFFF084864
:1003700006F0B4FA0521786805F09EFB0022012101
:10038000012005F01DFD00BF0837BD4680BD00BF40
:100390001014010080B582B000AFFFF711FF00F02C
:1003A00035F87860786804F09DFB00BF0837BD46DB
:1003B00080BD80B582B000AF00F028F8786003F00F
:1003C00033FC02467B68B3FBF2F33B6038680EF007
:1003D000DFFA00BF0837BD4680BD000006488047F1
:1003E0000649074A074B9A42BEBF51F8040B42F830
:1003F000040BF8E7FFF7AAFEE90400007C500100B7
:1004000000000020C4020020FEE700BF80B582B0DB
:1004100000AF00F025F878600A4BD3F808311B0ACA
:10042000C3F308033B603B6801337A68B2FBF3F324
:100430007B60054A7B6813607B6818460837BD46B9
:1004400080BD00BF00400E400800002080B400AF17
:10045000024B1846BD465DF8047B7047005A6202A5
:1004600080B483B000AF164BD3F8943003F0070389
:10047000032B08D0042B02D0022B08D00BE0114B29
:100480001B687B600BE04FF400437B6007E00E4B82
:100490001B687B6003E00D4B1B687B6000BF084B53
:1004A000D3F800311B0A03F01F0301337A68B2FB53
:1004B000F3F318460C37BD465DF8047B704700BF68
:1004C00000400E4004000020000000200C0000202E
:1004D00080B400AF034B1B681846BD465DF8047B33
:1004E000704700BF0000002080B400AF074B084AEF
:1004F0009A60064BD3F88830044A43F47003C2F87C
:10050000883000BFBD465DF8047B704700ED00E019
:100510000000000080B400AF4FF400431846BD4611
:100520005DF8047B704780B400AF4FF47A731846CF
:10053000BD465DF8047B704780B400AF034B1B6879
:100540001846BD465DF8047B704700BF04000020DC
:1005500080B483B000AF0346FB7197F90730002BDE
:100560000BDBFB7903F01F02074997F907305B09A2
:10057000012000FA02F241F8232000BF0C37BD46EB
:100580005DF8047B704700BF00E100E080B400AF7D
:10059000054B1B69044A23F00403136130BF00BFFD
:1005A000BD465DF8047B704700ED00E080B483B089
:1005B00000AF174B02225A60164B02225A60144BAE
:1005C00001225A61134B5B6A7B60134B1B78DBB2D1
:1005D0001946124A7B6842F821300F4B1B78DBB278
:1005E0001A460F4B53F822307A689A4207D90A4BC1
:1005F0001B78DBB219460A4A7B6842F82130094B66
:1006000001221A7000BF0C37BD465DF8047B7047AD
:100610000080014000840140E0020020E40200204C
:10062000F4020020E102002080B48BB000AF4FF054
:10063000FF333B62E023FB6100237B620AE07B6ABD
:100640009B0007F128021344FF2243F8282C7B6A01
:1006500001337B627B6A052BF1DD01237B6238E08D
:100660007B6A013B3E4A52F823301A027B6A9B00A8
:1006700007F128010B4443F8282C7B6A013B394AD7
:1006800052F823207B6A9B0007F128010B4453F8A2
:10069000283CB3FBF2F27B6A9B0007F128010B4474
:1006A00043F8282C7B6A9B0007F12802134453F877
:1006B000283CFA699A4209D97B6A9B0007F1280213
:1006C000134453F8283CFB617B6A3B627B6A01332D
:1006D0007B627B6A042BC3DD3B6AB3F1FF3F02D12F
:1006E0004FF0FF3336E03B6A013B1B01BB61BA6947
:1006F0003B6A013B9B0007F128010B4453F8283C5F
:10070000C3F58073D9003B6A9B0007F128000344BE
:1007100053F8283CC3F58073B1FBF3F3D31ABB61E4
:100720003B6A01339B0007F12802134453F8283C2D
:10073000C3F58073DA003B6A9B0007F128010B4484
:1007400053F8283CC3F58073B2FBF3F2BB69134442
:10075000BB61BB6918462C37BD465DF8047B70470A
:10076000E4020020F402002080B582B000AF03460E
:10077000FB71FB7919464FF0804004F05DFA0F4B96
:1007800000225A620E4B00225A620E4B00221A704F
:100790000A4B01225A600A4B01225A6001E0FFF71E
:1007A000F5FE084B1B78DBB283F00103DBB2002BB4
:1007B000F5D100BF0837BD4680BD00BF00800140B5
:1007C00000840140E102002080B500AF4FF080407E
:1007D00004F068FA0F4B00221A700FE00D4B1B78E3
:1007E000DBB21A460C4B9B5C1846FFF7BDFF094B6A
:1007F0001B78DBB20133DAB2064B1A70054B1B785B
:10080000DBB2032BEAD94FF0804004F031FA00BF8D
:1008100080BD00BFE002002020140100B0B586B00A
:1008200000AF224B3C461D460FCD0FC495E8030098
:1008300084E8030001211E4804F004FD01211D4845
:1008400004F000FD01211C4804F0FCFC01211B48C0
:1008500004F0F8FC01211A4804F0F4FC194B4FF0A5
:1008600010621A60174B0A22DA61164B01229A6154
:10087000144B00225A62144B144A1A60124B4FF662
:10088000FF72DA61104B124A1A67124B124A1A654C
:100890003B4619464FF0804004F08EF90B20FFF7DD
:1008A00057FE00BF1837BD46B0BD00BF241401007D
:1008B00040410500000204000012040000A20400F0
:1008C00000450A0000800140008401400000010A48
:1008D0000100002A00600E400003100080B582B0C5
:1008E00000AF114B7B60114B1B7883F00103DBB22F
:1008F000002B13D00D4B01221A700BE07B681B6894
:10090000984738603B68002B01D03B6807E07B6864
:1009100004337B607B681B68002BEFD100231846F3
:100920000837BD4680BD00BF100000203003002006
:1009300080B584B000AF78603960114B1B7883F0CC
:100940000103DBB2002B02D00E4BFB6012E07B6890
:10095000002B0DDC7B682C2202FB03F30A4A1344B4
:100960002C22194638680FF06DFC0023FB6001E073
:10097000064BFB60FB6818461037BD4680BD00BFC4
:1009800030030020050011800403002002001180C4
:1009900080B584B000AF7860134B1B7883F00103FF
:1009A000DBB2002B02D0114BFB6017E0104B1B6831
:1009B000002B11DC0E4B1B685A1C0D490A602C22BF
:1009C00002FB03F30B4A13442C22796818460FF0FC
:1009D00039FC0023FB6001E0074BFB60FB68184615
:1009E0001037BD4680BD00BF3003002005001180D8
:1009F00034030020040300200100118080B58CB076
:100A000000AF00F0A9FA00F03BFA00F0BFFA0023B3
:100A100000220821022000F0C9FA0023002206214A
:100A2000022000F0C3FA002300220E21032000F070
:100A3000BDFA002300220F21032000F0B7FA0023A3
:100A400000220D21032000F0B1FA80220D210320A5
:100A500000F0F0FAF862FB6A002B01D0FB6A27E095
:100A6000154B3B6001233B7400237B7480237B6028
:100A70008023FB607B68BB60104B7B61104BBB61CC
:100A8000104BFB61104B3B62104B7B62104BBB6207
:100A90003B461846FFF77CFFF862FB6A002B06D145
:100AA0003B460121184600F024F800F039F8FB6AB3
:100AB00018463037BD4680BD3C140100F30A0000E3
:100AC000690B0000D90B0000490C0000F50B000079
:100AD000D50A000080B584B000AF78600023FB60C9
:100AE00000F03AFA00F0CCF9FB6818461037BD4622
:100AF00080BD80B582B000AF78600B46FB70FB789C
:100B0000002B04D00F21032000F070FA03E00F2126
:100B1000032000F07DFA002318460837BD4680BD4B
:100B200080B582B000AF0E21032000F05FFA0620EE
:100B300000F01EFA0B4B1B7843F00403DBB29BB2B0
:100B4000FB80BB1D0221184600F0CCF9022000F00A
:100B50000FFA0E21032000F05BFA00231846083735
:100B6000BD4680BD3803002080B487B000AFF86078
:100B7000B9607A603B60BB68DA087B6802FB03F30C
:100B80007B61BB68802B01D00F4B16E00F4B1A68BE
:100B90007B6913440E4A934204D93B6800221A60D1
:100BA0000C4B0AE0094B1A683B681A60074B1A683D
:100BB0007B691344054A1360002318461C37BD4661
:100BC0005DF8047B704700BF020011801800002010
:100BD000BC0300200100118080B483B000AF7860B6
:100BE0003960034B18460C37BD465DF8047B7047EF
:100BF0000400118080B588B000AFF860B9607A60F9
:100C00003B60BB68FB61FB681B7C012B02D10023AE
:100C1000FB7601E0FF23FB7600237B610BE0FB7E8C
:100C200010221946F8690FF018FBFB691033FB61BD
:100C30007B6901337B617A693B689A42EFD3002379
:100C400018462037BD4680BD80B588B000AFF8603B
:100C5000B9607A603B60BB68BB61BB6A0133BB6251
:100C60000E21032000F0C2F9062000F081F9BB6AD2
:100C70009BB21B029BB243F001039BB2FB8207F1C4
:100C800016030221184600F02DF90023FB6126E02F
:100C90001021B86900F026F9BB691033BB61FB6A0B
:100CA000013BFA699A4203D14FF6FF73FB820DE0D4
:100CB000BB6A9AB2FB699BB213449BB201339BB2ED
:100CC0001B029BB243F0FF039BB2FB8207F11603AA
:100CD0000221184600F006F9FB690133FB61FA694D
:100CE000FB6A9A42D4D3022000F042F90E2103207D
:100CF00000F08EF9002318462037BD4680BD80B431
:100D000085B000AF786039607B6803F1C063FB6039
:100D1000FB683A681A6000BF1437BD465DF8047B73
:100D2000704780B485B000AF786039607B6803F1AC
:100D30008063FB60FB683A681A6000BF1437BD46E9
:100D40005DF8047B704780B582B000AF0346396020
:100D5000FB71FB79002B1CD0FB79012B19D0FB799F
:100D6000022B16D0FB79032B13D0FB79042B10D068
:100D7000FB79052B0DD0FB79062B0AD0FB79072BCD
:100D800007D0FB79082B04D0FB79092B01D0FB7924
:100D90000A2BFA7913465B0013441B010C3303F151
:100DA000804303F5204301213A6801FA02F211461B
:100DB0001846FFF7B6FF00BF0837BD4680BD80B5B7
:100DC00082B000AF03463960FB71FB79002B1CD069
:100DD000FB79012B19D0FB79022B16D0FB79032B61
:100DE00013D0FB79042B10D0FB79052B0DD0FB79A8
:100DF000062B0AD0FB79072B07D0FB79082B04D0F0
:100E0000FB79092B01D0FB790A2BFA7913465B0099
:100E100013441B010C3303F1804303F520430121EC
:100E20003A6801FA02F211461846FFF768FF00BF60
:100E30000837BD4680BD000080B483B000AF786045
:100E40003960074A7B6804331B01134404333A6852
:100E50001A6000BF0C37BD465DF8047B704700BFC9
:100E60000020044080B582B000AF786039603968F6
:100E70007868FFF7E1FF00BF0837BD4680BD00007E
:100E8000B0B588B000AF0023FB61124B3C1D1D467E
:100E90000FCD0FC495E8030084E8030001210E483C
:100EA00004F0D0F90D4BFB603B1D19460C4806F0D1
:100EB00005FB0B4B0A225A67094B9B6F23F01F233C
:100EC000074A43F00B239367FB6918462037BD465A
:100ED000B0BD00BF5414010000520400E0673500AB
:100EE0000004014080B584B000AF78603960002311
:100EF000FB6020E03B68012B04D07B6803F001031A
:100F0000002B0CD07B681B781946124806F0BEFBFC
:100F10003B68013B3B607B6801337B600BE07B6897
:100F20001B8819460B4806F0C7FB3B68023B3B6039
:100F30007B6802337B603B68002BDBD100BF054B35
:100F40001B6903F02003002BF9D0FB68184610370B
:100F5000BD4680BD0004014080B582B000AF0023D3
:100F60007B6000F03FFF7B6818460837BD4680BDB8
:100F700080B584B000AF78600023FB60786800F033
:100F8000F7FFFB6818461037BD4680BD80B582B0BC
:100F900000AF00237B600121034804F053F97B6814
:100FA00018460837BD4680BD00350A0080B586B0BA
:100FB00000AFF860B9603B601346FB7100237B61B2
:100FC000FB79002B0BD10423FB7400BFFB68D8B264
:100FD000FA7C3B68B96806F0BFF87B6900E0024B19
:100FE00018461837BD4680BD0100138080B584B017
:100FF00000AF786039600023FB607B68DBB2396842
:101000001846FFF7DCFEFB6818461037BD4680BD6A
:1010100080B584B000AF786039600023FB607B68E6
:10102000DBB239681846FFF78EFEFB6818461037AA
:10103000BD4680BD80B588B000AFF860B9607A6009
:101040000023FB614FF43063BB6102237B6101210C
:10105000124804F0F7F87A69B969042006F018F923
:101060000F4B5B6923F007030D4A43F00403536100
:101070000B4B9B680A4A43F010039360FB68D8B29D
:1010800000230422B96806F067F8786800F01CF8BD
:10109000FB6918462037BD4680BD00BF00450A00E9
:1010A00000600E4080B582B000AF78600121054835
:1010B00004F0C8F80321786804F0FEFC00BF08378C
:1010C000BD4680BD00250A0080B588B000AF7860BD
:1010D000214A07F1140307CA03C31A7000233B76A1
:1010E0001E48FFF7DFFF01211D4804F0ABF8002385
:1010F0003B7500237B750123FB7507F1140318462C
:1011000006F05CF9174A07F10C0392E80300186037
:101110000433198002330A0C1A7001237B7307F120
:101120000C031946012006F009F90D4804F0F0F807
:1011300002467B68B2FBF3F3013B19460120FFF73F
:1011400091FE094B00229A60012006F025F900BFAC
:101150002037BD4680BD00BF6C140100050024008F
:10116000A0091400781401000020044080B483B06A
:1011700000AF7860002318460C37BD465DF8047B4D
:10118000704780B483B000AF7860FEE780B483B06E
:1011900000AF786039603B684FF400525A6000231A
:1011A00018460C37BD465DF8047B704780B483B0A9
:1011B00000AF7860012318460C37BD465DF8047B0C
:1011C000704780B485B000AFF860B9607A600023E2
:1011D00018461437BD465DF8047B704780B586B06D
:1011E00000AFF860B9607A6000237B610FE000F027
:1011F0008BF838613B69B3F1FF3F0ED0BB685A1CD6
:10120000BA603A69D2B21A707B6901337B617B683C
:101210005A1E7A60002BEAD100E000BF7B69002BE8
:1012200002DC4FF0FF3300E07B6918461837BD46FB
:1012300080BD000080B485B000AF78600B4B1B68A8
:10124000002B02D1094B0A4A1A60084B1B68FB604D
:10125000064B1A687B681344044A1360FB681846FF
:101260001437BD465DF8047B704700BFBC03002007
:10127000B092002080B586B000AFF860B9607A60A7
:1012800000237B6109E0BB685A1CBA601B781846D2
:1012900000F044F87B6901337B617A697B689A428C
:1012A000F1DB7B6818461837BD4680BD80B58EB02F
:1012B00000AF07F1080319460020FFF739FB7863F8
:1012C0007B6B002B16D100233B6000233B71012375
:1012D0007B713B460A49184600F03AF878637B6B0D
:1012E000002B07D1074B1B689868002302220021BE
:1012F0000FF04CF87B6B18463837BD4680BD00BFF9
:10130000C0030020EC00002080B400AF4FF0FF339A
:101310001846BD465DF8047B7047000080B582B07A
:1013200000AF0346FB71094B1B68002B08D0074B2D
:101330001B68FA791146184600F0F0F8FB7901E0D5
:101340004FF0FF3318460837BD4680BDC00300206C
:1013500090B587B000AF7860396000237B610023CF
:101360003B6117E0684A3B69582101FB03F31344D2
:1013700055331B7883F00103DBB2002B07D03B69A8
:10138000582202FB03F3604A13447B6105E03B698A
:1013900001333B613B69002BE4DD7B69002B01D10C
:1013A0005A4BADE07B681A687B69043319461046D6
:1013B000FFF7BEFAB860BB68002B01D0BB689FE0A6
:1013C0007B695B7D002B1FD17B69DC697B69181D04
:1013D0007B6999687B693C330822A047B860BB6889
:1013E000002B01D0BB688BE07B699C6A7B69181D70
:1013F0007B69D96B7B699A680823A047B860BB6892
:10140000002B04D0BB687BE07B690022DA63404A92
:101410003B691B0113441A687B691B69DB089A420C
:1014200001D93C4B6CE03A4A3B691B01134404333D
:101430001A687B699B683849A1FB03139B089A4291
:1014400001D9344B5CE0324A3B691B0113441A68F2
:101450007B695A632E4A3B691B01134404331A68A3
:101460007B691A632A4A3B691B01134408331A68D3
:101470007B691A64264A3B691B0113440C331A68C2
:101480007B695A647B681A687B691A607B681A7981
:101490007B6983F838207B685A797B6983F8392027
:1014A0000023FB6010E07B69196C7B691B6BFA6899
:1014B00002FB03F27B69586CFB689B0003440A44FF
:1014C0001A60FB680133FB607B695B6BFA689A42C8
:1014D000E9D37B69002283F848207B69002283F8E6
:1014E00049207B69002283F84A20786900F088F857
:1014F0007B69012283F855203B687A691A600023D2
:1015000018461C37BD4690BDC4030020050012805C
:101510001C00002002001280ABAAAAAA80B584B0E9
:1015200000AF78600B46FB707B68FB60FB6893F84C
:10153000553083F00103DBB2002B01D02F4B58E074
:10154000FB685B7D002B04D1FB68012283F85420EB
:1015500003E0FB68022283F85420FB6893F83830DC
:10156000002B0FD0FB68DB6C002B17D1FB681A6DCA
:10157000FB685B6B013B9A4210D1FB68002283F849
:1015800054200BE0FB68DB6C002B07D1FB681B6D64
:10159000002B03D1FB68002283F85420FB780C2B2E
:1015A0000BD1F86800F02CF8FB68002283F8542077
:1015B000F86800F05DFB03461BE0FB6893F83930E8
:1015C000002B06D0FB780A2B03D10D21F86800F020
:1015D00051F9FB781946F86800F04CF9FB6893F86C
:1015E0005430032B04D0F86800F042FB034600E0BF
:1015F000002318461037BD4680BD00BF060012808C
:1016000080B582B000AF78607B685B6C002B15D032
:101610007B68186C7B685B6B7A68126B02FB03F368
:101620001A4600210EF019FE7B680022DA647B68FE
:1016300000221A657B68002283F8542000BF083717
:10164000BD4680BD80B584B000AF78600023FB60EC
:1016500014E07B685A6CFB689B00134418687B6835
:101660005A6CFB6801339B00134419687B681B6B41
:101670001A460EF0E7FDFB680133FB607B685B6B8D
:10168000013BFA689A42E4D37B685A6C7B685B6BD7
:1016900003F18043013B9B00134418687B681B6B7C
:1016A0001A4600210EF0D9FD7B680022DA647B68BF
:1016B0005B6B5A1E7B681A657B68002283F8542096
:1016C00000BF1037BD4680BD80B586B000AF7860E2
:1016D00039600023FB733B681B2B0ED104220021D1
:1016E00062480EF0BAFD3B68DAB2604B1A707B6854
:1016F000032283F854200123B3E05C4B1B781B2B9F
:1017000001D00023ADE0594B7B617B6901337B61E4
:101710007B691B78002BF8D13B68DAB27B691A70C1
:1017200052480EF0E1FEB86000233B6178E03B696F
:101730009B004F4A1344BA6819464C480EF0DCFE31
:101740000346002B69D10123FB737B68032283F8D6
:1017500054203B699B00464A134418460EF0C4FED1
:101760000246BB6893425FD13B69052B4AD801A270
:1017700052F823F08D1700008D1700009B17000012
:10178000AF170000C9170000E31700007B680022B4
:101790001A657B680022DA6434E07B681B6D002BDD
:1017A00029D07B681B6D5A1E7B681A6523E07B6815
:1017B0001A6D7B685B6B013B9A421ED27B681B6D86
:1017C0005A1C7B681A6518E07B68DA6C7B681B6BB7
:1017D000013B9A4213D27B68DB6C5A1C7B68DA644B
:1017E0000DE07B68DB6C002B0BD07B68DB6C5A1E3A
:1017F0007B68DA6405E000BF04E000BF02E000BFE0
:1018000000E000BF0422002118480EF026FD7B688E
:10181000032283F85420012323E03B6901333B6119
:101820003B69052B83DD00E000BFFB7B83F00103F8
:10183000DBB2002B06D0042200210C480EF00DFD77
:1018400000230EE0BB68032B0AD1042200210748C5
:101850000EF003FD7B68032283F85420012300E08F
:10186000FB7B18461837BD4680BD00BF1C04002016
:10187000A017010080B582B000AF786039603B6886
:101880000A2B08D00D2B02D0082B24D038E07B681F
:101890000022DA6486E07B681B6D5A1C7B681A653F
:1018A0007B680022DA647B681A6D7B685B6B9A4206
:1018B00075D37B6893F83830002B08D07868FFF731
:1018C000C1FE7B685B6B5A1E7B681A6567E07868AF
:1018D000FFF796FE63E07B681B7D002B10D07B68D2
:1018E0001B7D012B0CD07B68FF2283F848207B688E
:1018F000002283F849207B68002283F84A2051E0C7
:1019000039687868FFF7E0FE0346002B49D10EF0F6
:1019100079FC02463B68013313441B7803F09703BC
:10192000002B01D120233B607B68DA6C7B681B6B4A
:101930009A4207D37B680022DA647B681B6D5A1CCD
:101940007B681A657B681A6D7B685B6B9A4210D363
:101950007B6893F83830002B08D07868FFF772FE68
:101960007B685B6B5A1E7B681A6502E07868FFF73C
:1019700047FE3B68DAB27B68596C7B681B6D9B0045
:101980000B4419687B68DB6C0B44203AD2B21A70A6
:101990007B68DB6C5A1C7B68DA6400BF02E000BF26
:1019A00000E000BF0837BD4680BD0000B0B592B072
:1019B00002AF786039607B68DB6B7B630023BB63BD
:1019C00034E10023FB6373E07B685A6C3B689B0047
:1019D00013441A68FB6B13441B78FB73FA7BBB6BD5
:1019E000642101FB03F313449F4AD35C87F833302F
:1019F0007B681B7D002B08D0002B54DB022B52DCB4
:101A000097F83330DB4387F83330FA6B13465B00CB
:101A100013445B00BB60BB68BB623EE097F83330A9
:101A200003F00103002B17D0BB6ADB101A467B6B57
:101A300013441B785AB2BB6A03F00703012101FA71
:101A400003F35BB213435AB2BB6ADB1019467B6BDC
:101A50000B44D2B21A7018E0BB6ADB101A467B6BDB
:101A600013441B785AB2BB6A03F00703012101FA41
:101A700003F35BB2DB435BB213405AB2BB6ADB10C9
:101A800019467B6B0B44D2B21A7097F833305B085F
:101A900087F83330BB6A0133BB62BB680633BA6A6E
:101AA0009A42BBDB01E0714BDAE0FB6B0133FB6375
:101AB0007B681B6BFA6B9A4286D37B681B7D013B6C
:101AC000012B38D8FA6B13465B0013445B007B6232
:101AD0007B6A03F00703BB61BB69002B1CD07B6AE8
:101AE000DB101A467B6B13441B785AB20121BB6989
:101AF00001FA03F3DBB25B42DBB25BB213435AB2CF
:101B00007B6ADB1019467B6B0B44D2B21A707A6A7F
:101B1000BB69D31A08337B627B6ADB101A467B6B86
:101B200098187B689A687B6AD31ADB081A46FF21EB
:101B30000EF093FB00E000BF7B681B7D022B6CD195
:101B40007B6893F84830DB09DBB25AB27B6893F8C4
:101B500049309B115BB203F002035BB213435AB2EC
:101B60007B6893F84A305B115BB203F004035BB20D
:101B700013435BB2FB757B6B3B617B689B68DB0847
:101B8000013B3B6246E00023FB620023FB611BE05C
:101B90003B6A3A6913441B781A46FB6942FA03F31D
:101BA00003F00103002B01D1FA7D00E00722F9695F
:101BB0000B465B000B4402FA03F31A46FB6A13431D
:101BC000FB62FB690133FB61FB69072BE0DD3A6ACD
:101BD00013465B0013441A463B691344FA6AD2B2B7
:101BE0001A70FB6A190A3A6A13465B001344013300
:101BF0003A691344CAB21A70FB6A190C3A6A13465E
:101C00005B00134402333A691344CAB21A703B6A48
:101C1000013B3B623B6A002BB5DA7B68DB68DB0883
:101C20007A6B13447B63BB6B0133BB63BB6B072BCA
:101C30007FF6C7AE7B685C6A7B68181D7B68D96BD2
:101C40007B681A6B13465B0013445B001D463B68C0
:101C5000DB000822019200932B460022A047034696
:101C600018464037BD46B0BD801401000400128004
:101C700090B587B002AF78607B6893F85430012B41
:101C800071D0022B7DD0002B02D000BF002379E061
:101C90007B685B7D002B63D10023FB6006E0F96865
:101CA0007868FFF783FEFB680133FB607B685B6B42
:101CB000FA689A42F3D37B685B6BDA007B681B6936
:101CC0009A424FD27B681B7D012B0DD0022B15D081
:101CD000002B20D17B68D86B7B689B68DB081A4699
:101CE00000210EF0BAFA18E07B68D86B7B689B681D
:101CF000DB081A46FF210EF0B0FA0EE07B68D86BC5
:101D00007B689A6813465B001344DB081A46FF2180
:101D10000EF0A3FA01E01D4B34E07B685B6BDB0047
:101D2000FB6017E07B685C6A7B68181D7B68D96B79
:101D30007B689A6801230193FB6800931346002295
:101D4000A047B860BB68002B01D0BB681AE0FB68F5
:101D50000133FB607B681B69FA689A42E2D301E0B9
:101D60000A4B0FE000BF7B685B7D002B07D17B68CF
:101D70001B6D19467868FFF719FE034602E0034B16
:101D800000E0024B18461437BD4690BD0400128097
:101D900080B483B000AF0346FB7197F90730002B86
:101DA0000CDBFB7903F01F02074997F907305B0949
:101DB000012000FA02F2603341F8232000BF0C3703
:101DC000BD465DF8047B704700E100E080B400AFE1
:101DD000034B9B681846BD465DF8047B704700BF07
:101DE0000020044080B58AB000AF002387F8273078
:101DF000002387F82630002387F82530002387F852
:101E00002430002387F82330534A3B4607CA03C3D4
:101E10001A700023FB610023BB61504BD3F8B03034
:101E200003F00403002B06D101214D4803F00AFA08
:101E3000012387F827304B4803F05EFD0346FB750E
:101E4000FB7D032B02D0012387F82530434BD3F8C9
:101E5000903003F04003002B02D1012387F8243097
:101E60000321404803F028FE3F4803F0CFF93861D2
:101E70003A4BD3F8F03003F00103002B06D10121D7
:101E8000394803F0DFF9012387F8263004F0B6F96A
:101E9000F860364B1B6803F00103002B15D0334B61
:101EA0001B68FB61314B5B6ABB61304B00221A60DF
:101EB0002E4B00225A622D4B40F2FF721A621E20F6
:101EC000FFF766FF012387F823300023BB70002350
:101ED000FB7008233B713B46184605F06FFA00F093
:101EE00065F8F86804F09AF997F82330002B0AD0C7
:101EF00039691D4803F097F91C4AFB6913601B4AB6
:101F0000BB69536202E0002005F046FA97F82630DC
:101F1000002B03D00021144803F094F997F82530E2
:101F2000002B04D0FB7D19460E4803F0C5FD97F841
:101F30002430002B04D000220021012003F040FFB8
:101F400097F82730002B03D00021054803F07AF9D9
:101F500000BF2837BD4680BDB817010000400E40C5
:101F600000250A0005002400A009140000200440F8
:101F700080B483B000AF78607B680B49002B0CD035
:101F8000013B88221202003253430A68D80AD20A5F
:101F90005043800901D00138FDD800BF0C37BD4641
:101FA0005DF8047B704700BF2C00002080B584B032
:101FB00000AF0823BB60334B4FF480521A601AE025
:101FC00000F062F8786000BF00F05EF802467B68BF
:101FD0009342F9D000F058F878602A4B1B681846F5
:101FE00000F059F800F050F802467B68D31A7B6085
:101FF0007B68002B07D1234B1B685B00214A1360D1
:10200000002BDDD100E000BF1E4B1B685B081D4AA2
:1020100013601C4B1B68FB6024E01A4B1A68FB68BA
:102020001343184A136000F02FF8786000BF00F0E7
:102030002BF802467B689342F9D000F025F87860CF
:10204000104B1B68184600F026F800F01DF80246F9
:102050007B68934206D0FB68DA430A4B1B68134047
:10206000084A1360BB685A1EBA60002B05D0FB6893
:102070005B08FB60FB68002BCFD100BF1037BD466B
:1020800080BD00BF2C00002080B500AFFFF79EFE92
:102090000346184680BD80B483B000AF78607B688B
:1020A000013BFDD800BF0C37BD465DF8047B70478F
:1020B00080B483B000AF214B7B607B6802221A6141
:1020C0007B6802225A617B681D4A9A617B681D4ABF
:1020D000DA617B684FF480621A627B6800229A6240
:1020E0007B6800225A627B680022DA627B68144AAD
:1020F0009A647B68144ADA647B6810221A657B68EC
:1021000000229A657B6800225A657B680022DA65A6
:102110007B6807330D4A106818607B680C4A1068AA
:1021200018609188927999809A717B6820229A71BF
:1021300000BF0C37BD465DF8047B70476469002022
:10214000C41701002004002020080020D01701003F
:10215000D417010080B58AB000AFF860B9607A602A
:102160003C4B1B78002B01D1FFF7A2FFFA68134606
:102170005B001344DB004833364A1344BB61BB6841
:10218000FB61BB691B693B62BB69DB687B61002348
:102190007B623A6A7B699A422AD9BB699A683B6A30
:1021A000D31A3B613A697B68934228BF13463B616F
:1021B000BB695A683B6A13443A691946F8690EF0DC
:1021C00041F87A6A3B6913447B62FA693B691344BC
:1021D000FB617A683B69D31A7B603A6A3B691344B6
:1021E0003B62BB699B683A6A9A4201D100233B6219
:1021F0007A693B6AD31A3B613A697B68934228BF8C
:1022000013463B613B69002B18D0BB695A683B6A97
:1022100013443A691946F8690EF014F87A6A3B6972
:1022200013447B62FA693B691344FB617A683B693A
:10223000D31A7B603A6A3B6913443B627B6A002B8A
:1022400002D0BB693A6A1A617B6A18462837BD46D4
:1022500080BD00BF6469002080B58AB000AFF8601F
:10226000B9607A60BB687B62FB685A1C13465B00EE
:102270001344DB003F4A13443B623B6A1B69FB612A
:102280003B6ADB68BB61FA69BB699A4254D83B6A16
:102290009A68BB69D31A013B7B617A697B689A4271
:1022A0000FD33B6A5A68BB6913447A68796A184647
:1022B0000DF0C8FFBA697B681A443B6ADA600123F3
:1022C00054E07A69FB6913447B617A697B689A42BE
:1022D0004BD33B6A9A68BB69D31A3B613A697B6806
:1022E0009A420ED93B6A5A68BB6913447A68796A84
:1022F00018460DF0A7FFBA697B681A443B6ADA609A
:1023000018E03B6A5A68BB6913443A69796A18460F
:102310000DF098FF3B6A58687A6A3B69D1187A6871
:102320003B69D31A1A460DF08DFF7A683B69D21AC1
:102330003B6ADA60012319E0FA69BB69D31A013BF1
:102340007B617A697B689A420FD33B6A5A68BB69A2
:1023500013447A68796A18460DF074FFBA697B688D
:102360001A443B6ADA60012300E00023184628374C
:10237000BD4680BD6469002080B586B000AFF860BE
:10238000B9607A603B602E4B1B78002B01D1FFF7C0
:102390008FFE2B4B1B691A46FB68934248D203F011
:1023A0000FFF3861FB68002B32D02549FB685A1CAF
:1023B00013465B001344DB000B44BA681A602049E3
:1023C000FB685A1C13465B001344DB000B440433C8
:1023D0007A681A601A49FA6813465B001344DB00F6
:1023E0000B4420333A681A601549FA6813465B00BB
:1023F0001344DB000B44283300221A601049FA68AA
:1024000013465B001344DB000B44243300221A60A4
:102410000B49FA6813465B001344DB000B442C3372
:102420003A6A1A60386903F0DBFE00237B6102E040
:102430004FF0FF337B617B6918461837BD4680BD7E
:102440006469002080B586B000AFF860B9607A603A
:102450003B602E4B1B78002B01D1FFF729FE2B4B45
:102460005B691A46FB68934247D203F0A9FE3861C4
:10247000FB68002B31D02549FA6813465B001344F2
:10248000DB000B444833BA681A602049FA681346E7
:102490005B001344DB000B444C337A681A601B4921
:1024A000FA6813465B001344DB000B4450333A6870
:1024B0001A601649FA6813465B001344DB000B44AC
:1024C000583300221A601149FA6813465B0013441E
:1024D000DB000B44543300221A600C49FA6813469F
:1024E0005B001344DB000B445C333A6A1A603869C2
:1024F00003F076FE00237B6102E04FF0FF337B6147
:102500007B6918461837BD4680BD00BF646900204E
:1025100080B487B000AFF860B9607A6000233B6197
:1025200002E03B6901333B61BA683B6913441B78A5
:10253000002BF6D13A697B689A4201D97B683B61EE
:102540003B69FE2B06D8FB685A1CFA603A69D2B286
:102550001A7011E0FB685A1CFA60FF221A70FB68BF
:102560005A1CFA603A69D2B21A703B69190AFB68C0
:102570005A1CFA60CAB21A7000237B610AE0BA687A
:10258000531CBB60FB68591CF96012781A707B6998
:1025900001337B617A693B699A42F0D3FB68184644
:1025A0001C37BD465DF8047B704780B483B000AF34
:1025B00078607B68043318460C37BD465DF8047BB1
:1025C000704780B582B000AFFB1C01221946012084
:1025D000FFF7C0FD03467B607B68002B44DDFB7882
:1025E000042B1AD0042B06DC022B10D0022B11DC9A
:1025F000012B09D02DE0062B15D0062B10DB072B65
:1026000014D0802B15D024E000F07CFA31E000F0EB
:102610002DFB2EE000F0F8FC2BE000F0C1FC28E0E0
:1026200000F046FB25E000F081FF22E000F060FFB3
:102630001FE0FB1C012219460120FFF78BFD03461A
:102640007B607B68002B11DDFB78184600F0D4FE20
:102650000CE0FB785BB2002B0ADAFB1C0122194666
:102660000120FFF777FD03E000BF02E000BF00E0BC
:1026700000BF00BF0837BD4680BD000080B58CB0EC
:1026800000AF01233B713B1D0133FB61FB69FB6222
:10269000334B5B69BB620BE0BB6ADAB2FB6A591C65
:1026A000F96262F07F02D2B21A70BB6ADB09BB62C8
:1026B000BB6A7F2BF0D8FB6A5A1CFA62BA6AD2B2A4
:1026C0001A70FB6AFB61274B1B68BB61244BDB68FC
:1026D000BA69D31A7B617B691B017B617B691B1122
:1026E0007B61FB697B627B693B620BE03B6ADAB230
:1026F0007B6A591C796262F07F02D2B21A703B6A1F
:10270000DB093B623B6A7F2BF0D87B6A5A1C7A62FA
:102710003A6AD2B21A707B6AFB61FA693B1DD31A1E
:102720001A463B1D19460120FFF796FD03463B6103
:102730003B69002B09D00A4ABB69D360084B1B7860
:10274000013BDAB2064B1A7004E0054B5B690133BA
:10275000034A53613B6918463037BD4680BD00BF10
:1027600038180020041000E080B58AB000AFF8608F
:10277000B9607A60654B1B78012B10D0634B1B78D6
:10278000002B00F0A780614B1B78022B09D1FFF7CB
:1027900075FF5E4B1B78012B40F09E8001E000BF6F
:1027A00000E000BF7B681F2B09D8584BDA697B68B3
:1027B00022FA03F303F00103002B40F08F807B68C3
:1027C000172B07D8FB68013BFB607B68DAB2FB681C
:1027D0001A703DE0BA68FB68D31AFB61FB697F2B76
:1027E00012D9FB69DA09FB68013BFB60D2B2FB68D6
:1027F0001A70FB69DBB2FA68013AFA6063F07F0392
:10280000DAB2FB681A7006E0FB68013BFB60FB690B
:10281000DAB2FB681A707B687F2B12D97B68DA0901
:10282000FB68013BFB60D2B2FB681A707B68DBB2CD
:10283000FA68013AFA6063F07F03DAB2FB681A7053
:1028400006E0FB68013BFB607B68DAB2FB681A704C
:102850002F4B1B68BB612D4BDB68BA69D31A7B61B8
:102860007B691B017B617B691B097B61BB687B62A8
:102870007B693B620BE03B6ADAB27B6A591C796286
:1028800062F07F02D2B21A703B6ADB093B623B6A9C
:102890007F2BF0D87B6A5A1C7A623A6AD2B21A70DD
:1028A0007B6ABB60BA68FB68D31A1A46F9680120D4
:1028B000FFF7D2FC03463B613B69002B03D0134A70
:1028C000BB69D3600BE0114B1B780133DAB20F4BBD
:1028D0001A7004E000BF02E000BF00E000BF0D4B33
:1028E000DA6E0C4B1B6F9A420BD0084B9B78002B77
:1028F00007D1064B01229A70FFF763FE034B0022BB
:102900009A7000BF2837BD4680BD00BF3818002030
:10291000041000E06469002080B586B002AFF86062
:10292000B9607A603B60002300934FF48053144AEF
:1029300014490120FFF720FD002300930823124AC9
:1029400010490120FFF77EFD104B4FF080521A61B5
:102950000F4B1B680D4AD3600C4A7B6813620B4A0D
:10296000FB685360094ABB689360084A3B6853623E
:10297000064B00221A7000BF1037BD4680BD00BF55
:1029800030080020E8170100301800203818002017
:10299000041000E080B483B000AF7860044A7B6824
:1029A000136100BF0C37BD465DF8047B704700BF64
:1029B0003818002080B584B000AF786003F000FCC8
:1029C000F8600848FFF7F1FDB8607A68B968B86840
:1029D000FFF7CAFEF86803F003FC00BF1037BD46DE
:1029E00080BD00BF6818002080B588B000AF786057
:1029F000396003F0E5FB78611648FFF7D6FD3861D2
:102A00003B69FB60FB68FB613B68BB610BE0BB693A
:102A1000DAB2FB69591CF96162F07F02D2B21A7016
:102A2000BB69DB09BB61BB697F2BF0D8FB695A1C12
:102A3000FA61BA69D2B21A70FB69FB607A68F96808
:102A40003869FFF791FE786903F0CAFB00BF2037B1
:102A5000BD4680BD6818002080B58CB000AFF8601E
:102A6000B9607A6003F0ACFBF8612548FFF79DFD83
:102A7000B861BB697B617B69FB62BB68BB620BE0D1
:102A8000BB6ADAB2FB6A591CF96262F07F02D2B209
:102A90001A70BB6ADB09BB62BB6A7F2BF0D8FB6A8A
:102AA0005A1CFA62BA6AD2B21A70FB6A7B617B69FD
:102AB0007B627B683B620BE03B6ADAB27B6A591C43
:102AC000796262F07F02D2B21A703B6ADB093B6224
:102AD0003B6A7F2BF0D87B6A5A1C7A623A6AD2B280
:102AE0001A707B6A7B61FA687969B869FFF73CFE06
:102AF000F86903F075FB00BF3037BD4680BD00BFED
:102B00006818002080B58CB000AF554B1B78002BA7
:102B100040F0A280524B01221A7003F051FBF86082
:102B20000A2250490120FFF797FBF86803F058FB91
:102B30000A20FFF73FFF03F043FBB8604A48FFF766
:102B400034FD78607B683B603B68FB62444B5B68AC
:102B5000BB620BE0BB6ADAB2FB6A591CF96262F035
:102B60007F02D2B21A70BB6ADB09BB62BB6A7F2BE1
:102B7000F0D8FB6A5A1CFA62BA6AD2B21A70FB6ABF
:102B80003B603B687B62364B9B683B620BE03B6A79
:102B9000DAB27B6A591C796262F07F02D2B21A7093
:102BA0003B6ADB093B623B6A7F2BF0D87B6A5A1C8D
:102BB0007A623A6AD2B21A707B6A3B603B68FB6108
:102BC000274B1B69BB610BE0BB69DAB2FB69591C7F
:102BD000F96162F07F02D2B21A70BB69DB09BB6196
:102BE000BB697F2BF0D8FB695A1CFA61BA69D2B273
:102BF0001A70FB693B603B687B6102233B610BE021
:102C00003B69DAB27B69591C796162F07F02D2B20A
:102C10001A703B69DB093B613B697F2BF0D87B690C
:102C20005A1C7A613A69D2B21A707B693B601822E9
:102C300039687868FFF798FDB86803F0D1FA084B57
:102C40005B6A002B02D0064B5B6A984700F0DCF908
:102C500000F0A6F900F06AFC00BF3037BD4680BD29
:102C600038180020DC1701006818002080B582B0F9
:102C700000AF03F0A5FA78600B48FFF796FC3860C8
:102C80000A4B1B78002B07D00B2239683868FFF7F6
:102C90006BFD064B00221A70786803F0A1FA00BFA2
:102CA0000837BD4680BD00BF6818002038180020D6
:102CB00080B58CB000AF03F083FAF8604548FFF7A9
:102CC00074FCB860BB687B607B68FB62424B5B68EE
:102CD000BB620BE0BB6ADAB2FB6A591CF96262F0B4
:102CE0007F02D2B21A70BB6ADB09BB62BB6A7F2B60
:102CF000F0D8FB6A5A1CFA62BA6AD2B21A70FB6A3E
:102D00007B607B687B62344B9B683B620BE03B6A79
:102D1000DAB27B6A591C796262F07F02D2B21A7011
:102D20003B6ADB093B623B6A7F2BF0D87B6A5A1C0B
:102D30007A623A6AD2B21A707B6A7B607B68FB6106
:102D4000254B1B69BB610BE0BB69DAB2FB69591CFF
:102D5000F96162F07F02D2B21A70BB69DB09BB6114
:102D6000BB697F2BF0D8FB695A1CFA61BA69D2B2F1
:102D70001A70FB697B607B687B6102233B610BE01F
:102D80003B69DAB27B69591C796162F07F02D2B289
:102D90001A703B69DB093B613B697F2BF0D87B698B
:102DA0005A1C7A613A69D2B21A707B697B60182228
:102DB0007968B868FFF7D8FCF86803F011FA064B99
:102DC0005B6A002B02D0044B5B6A984700BF303728
:102DD000BD4680BD681800203818002080B592B02C
:102DE00000AF786003F0ECF978616B48FFF7DDFB2A
:102DF00038613B69FB60FB687B647B681A68674BE2
:102E00001B69D31A9B083B640BE03B6CDAB27B6C0A
:102E1000591C796462F07F02D2B21A703B6CDB09F4
:102E20003B643B6C7F2BF0D87B6C5A1C7A643A6C09
:102E3000D2B21A707B6CFB60FB68FB637B689B689B
:102E4000BB630BE0BB6BDAB2FB6B591CF96362F03E
:102E50007F02D2B21A70BB6BDB09BB63BB6B7F2BEB
:102E6000F0D8FB6B5A1CFA63BA6BD2B21A70FB6BC8
:102E7000FB607B685B6820221946F868FFF748FB17
:102E8000F8600922F9683869FFF76EFC3B69FB605E
:102E9000FB687B637B681A68404B1B69D31A9B08ED
:102EA0003B630BE03B6BDAB27B6B591C796362F0DE
:102EB0007F02D2B21A703B6BDB093B633B6B7F2B0B
:102EC000F0D87B6B5A1C7A633A6BD2B21A707B6B68
:102ED000FB60FB68FB627B68DB68BB620BE0BB6A84
:102EE000DAB2FB6A591CF96262F07F02D2B21A7040
:102EF000BB6ADB09BB62BB6A7F2BF0D8FB6A5A1C3A
:102F0000FA62BA6AD2B21A70FB6AFB60FB687B6233
:102F10007B681B693B620BE03B6ADAB27B6A591C37
:102F2000796262F07F02D2B21A703B6ADB093B62BF
:102F30003B6A7F2BF0D87B6A5A1C7A623A6AD2B21B
:102F40001A707B6AFB60FB68FB610023BB610BE0CE
:102F5000BB69DAB2FB69591CF96162F07F02D2B237
:102F60001A70BB69DB09BB61BB697F2BF0D8FB69B9
:102F70005A1CFA61BA69D2B21A70FB69FB60152259
:102F8000F9683869FFF7F0FB786903F029F900BFA9
:102F90004837BD4680BD00BF6818002038180020A3
:102FA00080B500AF074B1B6A002B08D0054B1B6A8E
:102FB0005B68002B03D0034B1B6A5B68984700BF1C
:102FC00080BD00BF3818002080B586B000AF7860A3
:102FD00003F0F6F878610B48FFF7E7FA38618022D2
:102FE00079683869FFF794FAF8600E22F968386951
:102FF000FFF7BAFB786903F0F3F800BF1837BD4656
:1030000080BD00BF6818002090B583B000AF144B9E
:103010001B6A002B19D0124B1B6A1B68002B14D0A3
:103020000F4B1B6A1B689847C7E900013868D7E94E
:1030300000124FF000034FF00004130000241A4662
:1030400001460D20FFF708FD05E0064B1B681946F9
:103050000C20FFF7C9FC00BF0C37BD4690BD00BF78
:1030600038180020041000E080B586B000AF03F0EF
:10307000A7F8F8601948FFF798FAB860BB687B605A
:10308000174B1B68C3F308033B607B687B613B689D
:103090003B610BE03B69DAB27B69591C796162F0F4
:1030A0007F02D2B21A703B69DB093B613B697F2B1F
:1030B000F0D87B695A1C7A613A69D2B21A707B697E
:1030C0007B6002227968B868FFF74EFBF86803F06E
:1030D00087F800BF1837BD4680BD00BF68180020C4
:1030E00004ED00E080B582B000AF03F069F87860CD
:1030F0000748FFF75AFA3860032239683868FFF743
:1031000033FB786803F06CF800BF0837BD4680BD1C
:103110006818002080B588B000AF786003F050F8E0
:1031200078611A48FFF741FA38613B69FB60184B38
:103130001B697A68D31A9B087B60FB68FB617B681C
:10314000BB610BE0BB69DAB2FB69591CF96162F043
:103150007F02D2B21A70BB69DB09BB61BB697F2BEE
:10316000F0D8FB695A1CFA61BA69D2B21A70FB69CD
:10317000FB600822F9683869FFF7F6FA786903F00E
:103180002FF800BF2037BD4680BD00BF6818002063
:103190003818002080B588B000AF786003F010F8D0
:1031A00078611A48FFF701FA38613B69FB60184BF8
:1031B0001B697A68D31A9B087B60FB68FB617B689C
:1031C000BB610BE0BB69DAB2FB69591CF96162F0C3
:1031D0007F02D2B21A70BB69DB09BB61BB697F2B6E
:1031E000F0D8FB695A1CFA61BA69D2B21A70FB694D
:1031F000FB600422F9683869FFF7B6FA786902F0D3
:10320000EFFF00BF2037BD4680BD00BF681800201B
:103210003818002080B588B000AF786002F0D0FF89
:1032200078611A48FFF7C1F938613B69FB60184BB8
:103230001B697A68D31A9B087B60FB68FB617B681B
:10324000BB610BE0BB69DAB2FB69591CF96162F042
:103250007F02D2B21A70BB69DB09BB61BB697F2BED
:10326000F0D8FB695A1CFA61BA69D2B21A70FB69CC
:10327000FB600622F9683869FFF776FA786902F090
:10328000AFFF00BF2037BD4680BD00BF68180020DB
:103290003818002080B58AB000AF7860396002F03D
:1032A0008FFF78612748FFF780F938613B69FB6041
:1032B000254B1B697A68D31A9B087B60FB687B628D
:1032C0007B683B620BE03B6ADAB27B6A591C79622D
:1032D00062F07F02D2B21A703B6ADB093B623B6A42
:1032E0007F2BF0D87B6A5A1C7A623A6AD2B21A7083
:1032F0007B6AFB60FB68FB613B68BB610BE0BB6901
:10330000DAB2FB69591CF96162F07F02D2B21A701D
:10331000BB69DB09BB61BB697F2BF0D8FB695A1C19
:10332000FA61BA69D2B21A70FB69FB600722F968C8
:103330003869FFF719FA786902F052FF00BF2837A1
:10334000BD4680BD681800203818002080B588B0C0
:1033500000AF7860396002F033FF78611B48FFF7F7
:1033600024F938613B69FB60FB68FB61184B1B6902
:103370007A68D31A9B08BB610BE0BB69DAB2FB69C0
:10338000591CF96162F07F02D2B21A70BB69DB0985
:10339000BB61BB697F2BF0D8FB695A1CFA61BA6923
:1033A000D2B21A70FB69FB6080223968F868FFF7B7
:1033B000AFF8F8601922F9683869FFF7D5F978692C
:1033C00002F00EFF00BF2037BD4680BD6818002008
:1033D0003818002080B483B000AF7860054B1B69BB
:1033E0007A68D31A9B0818460C37BD465DF8047BF3
:1033F000704700BF3818002080B58CB000AF03467E
:10340000FB71394B1B68002B69D0374B1B68FB6283
:103410000023BB6208E0FB6A1B69FB62FB6A002BAE
:1034200007D0BB6A0133BB62FB79BA6A9A42F2D316
:1034300000E000BFFB6A002B51D002F0C1FE7861B2
:103440002A48FFF7B2F838613B69FB60FB687B6292
:10345000FB793B620BE03B6ADAB27B6A591C79620A
:1034600062F07F02D2B21A703B6ADB093B623B6AB0
:103470007F2BF0D87B6A5A1C7A623A6AD2B21A70F1
:103480007B6AFB60FB68FB61FB6A9B68BB610BE0CE
:10349000BB69DAB2FB69591CF96162F07F02D2B2F2
:1034A0001A70BB69DB09BB61BB697F2BF0D8FB6974
:1034B0005A1CFA61BA69D2B21A70FB69FB60FB6AE6
:1034C0001B6880221946F868FFF722F8F860162278
:1034D000F9683869FFF748F9786902F081FE00BFA2
:1034E0003037BD4680BD00BF60180020681800203E
:1034F00080B582B000AF0C4B1B68002B0FD00A4B7D
:103500001B687B607B68DB68002B02D07B68DB6814
:1035100098477B681B697B607B68002BF2D100BFFA
:103520000837BD4680BD00BF6018002080B586B05A
:1035300000AF02F045FEF8601748FFF736F8B860B4
:10354000BB687B607B687B61144B1B783B610BE045
:103550003B69DAB27B69591C796162F07F02D2B2B1
:103560001A703B69DB093B613B697F2BF0D87B69B3
:103570005A1C7A613A69D2B21A707B697B601B224D
:103580007968B868FFF7F0F8F86802F029FE00BF24
:103590001837BD4680BD00BF6818002064180020A1
:1035A00080B58AB000AF786002F00AFE78612748E3
:1035B000FEF7FBFF3861802279683869FEF7A8FFC3
:1035C000F860FB687B6201233B620BE03B6ADAB286
:1035D0007B6A591C796262F07F02D2B21A703B6A30
:1035E000DB093B623B6A7F2BF0D87B6A5A1C7A620C
:1035F0003A6AD2B21A707B6AFB60FB68FB610023F7
:10360000BB610BE0BB69DAB2FB69591CF96162F07E
:103610007F02D2B21A70BB69DB09BB61BB697F2B29
:10362000F0D8FB695A1CFA61BA69D2B21A70FB6908
:10363000FB601A22F9683869FFF796F8786902F09A
:10364000CFFD00BF2837BD4680BD00BF68180020F1
:1036500080B500AF0448FFF7B7FC0448FFF7B4FC9F
:1036600000F078F900BF80BDF017010020180100BC
:1036700098B500AF094801F0F1F90446074801F098
:10368000EDF90146064B074A2046FFF745F94FF092
:103690000050FFF77FF900BF98BD00BFDC69002034
:1036A00051360000D8180100F0B585B002AF0023F4
:1036B0007B6036E01F497A6813469B0013449B00E9
:1036C0000B4418681B497A6813469B0013449B00FF
:1036D0000B4404331C6817497A6813469B00134453
:1036E0009B000B4408331B781D4612497A68134629
:1036F0009B0013449B000B440C331B681E460D4972
:103700007A6813469B0013449B000B4410331B68DC
:10371000009333462A46214600F0B2F87B68013315
:103720007B60054B1B687A689A42C3D300BF0C3795
:10373000BD46F0BD4C190020CC1B002090B585B0D3
:1037400000AF01F080F9F860F868FCF797FDC7E971
:103750000001D7E90034184621461437BD4690BD14
:1037600080B582B000AF78607868FFF753FD00BF86
:103770000837BD4680BD80B582B000AF78600421B7
:103780007868FFF787FD7868FFF744FD00BF0837CA
:10379000BD4680BD80B582B000AF78607868FFF725
:1037A000F9FC00BF0837BD4680BD80B582B000AFD0
:1037B000786004217868FFF76DFD00BF0837BD46CB
:1037C00080BD000080B586B002AFF860B9603B6094
:1037D0001346FB71274B1B681F2B03D92648FFF7A5
:1037E000DFFE43E0234B1A68244913469B00134431
:1037F0009B000B44FA681A601E4B1A681F49134657
:103800009B0013449B000B440433BA681A60194BA5
:103810001A681A4913469B0013449B000B44083353
:10382000FA791A70134B1A68144913469B00134413
:103830009B000B440C333A681A600E4B1A680F4910
:1038400013469B0013449B000B441033BA691A6063
:10385000084B1B680133074A1360FA793968BB6962
:1038600000930B46B968F86800F00AF81037BD46B7
:1038700080BD00BFCC1B0020341801004C19002073
:1038800080B58AB000AFF860B9607A603B6007F13C
:1038900014031422002118460CF0DFFCFB687B6146
:1038A000BB68BB617B68FB613B683B623B6B7B62D7
:1038B00007F114031846FFF791FA00BF2837BD46F9
:1038C00080BD000080B584B000AFF860B9607A6058
:1038D0007968B868FFF73AFDB868FFF77BFD0346E3
:1038E0001946F868FFF780F8174B1B68FF2B03D9C0
:1038F0001648FFF755FE24E0134B1A681449134687
:103900005B0013449B000B44BA681A600E4B1A68A4
:103910000F4913465B0013449B000B4404337A6841
:103920001A60094B1A680A4913465B0013449B004E
:103930000B44083300221A60034B1B680133024A10
:1039400013601037BD4680BDD027002084180100C9
:10395000D01B002080B582B000AF00237B602BE03D
:103960001A497A6813465B0013449B000B440833E2
:103970001B68002B1DD115497A6813465B00134460
:103980009B000B44186811497A6813465B00134486
:103990009B000B4404331B681946FFF7D7FC0B4907
:1039A0007A6813465B0013449B000B4408330122E2
:1039B0001A607B6801337B60054B1B687A689A420A
:1039C000CED300BF0837BD4680BD00BFD01B00204E
:1039D000D027002080B483B000AF78607B680022DD
:1039E0001A6000BF0C37BD465DF8047B70470000CD
:1039F00080B582B000AF7860144B01221A707B68EA
:103A0000002B01D101F01CF87B6800221A70104BCA
:103A10001A687B685A600F4B1A687B689A607B68EB
:103A20000D4ADA607B68B7221A617B680B4A5A61DB
:103A300000F002FA00F0F8F9786800F057FF7B68B0
:103A40001B78002B0837BD4680BD00BFD42700205F
:103A5000C03F01000C420100E01801005C190100A8
:103A600080B400AF034B1B681846BD465DF8047B6D
:103A7000704700BFD827002080B485B000AF034650
:103A80000A46FB711346BB710023FB73FB79162BAF
:103A900063D801A252F823F0F53A0000FB3A000087
:103AA000013B0000013B0000013B0000073B000020
:103AB0000D3B00000D3B00000D3B0000133B0000E0
:103AC000193B00001F3B0000253B00002B3B000082
:103AD0002B3B00002B3B00003D3B0000433B000024
:103AE000493B00004F3B0000313B0000373B0000EA
:103AF000553B00000123FB7330E00123FB732DE0F5
:103B00000123FB732AE00123FB7327E00123FB73EE
:103B100024E00123FB7321E00123FB731EE001235A
:103B2000FB731BE00123FB7318E00123FB7315E01B
:103B30000123FB7312E00123FB730FE00123FB73EE
:103B40000CE00123FB7309E00123FB7306E0012372
:103B5000FB7303E00123FB7300E000BFFB7B18460F
:103B60001437BD465DF8047B704700BF80B58EB04A
:103B700000AFF860B9607A600023FB627B68002BBD
:103B800001D100F05DFF274B1B68002B08D178683E
:103B900000F056F87B681B78002B01D0FB6A3DE0F3
:103BA000204B1B687968184600F04EFA38637B6832
:103BB0001B78002B01D0FB6A30E03B6B7A68F96818
:103BC000184605F0CBFF7B681B78002B17D1BB682C
:103BD000002B09D0BB681B7803F00103002B03D036
:103BE000012387F8373002E0002387F837303B6B3A
:103BF00097F8372083F834203B6BFB620DE0094BCC
:103C00001B68184607F114031A46396B00F012FBC3
:103C10003B7D002B01D000F013FFFB6A18463837BC
:103C2000BD4680BDDC27002080B400AF034B1B687D
:103C30001846BD465DF8047B704700BF242800206D
:103C400080B588B004AF78607B68002B01D100F0AC
:103C5000F7FE7B6800221A705E4B1A687B685A6018
:103C60005D4B1A687B689A607B685C4ADA607B68A7
:103C700040F6B5021A617B68594A5A61786804F0C7
:103C8000D3F87B681B78002B03D0786804F058F9D0
:103C90009DE0544B1B68002B40F09580FFF7E0FE41
:103CA000F8607B68B422F9684F4800F053F9024687
:103CB0004C4B1A607B681B78002B03D0786804F0AB
:103CC0003FF984E0474B1B6819467B6803934FF02C
:103CD000FF33029300230193042300933823FA68EF
:103CE000424800F05FF97B681B78002B03D07868AE
:103CF00004F026F96BE03B4B1B6803F124017B6861
:103D000003934FF0FF3302930023019304230093A6
:103D10002C23FA68364800F045F97B681B78002BA5
:103D200003D0786804F00CF951E02E4B1B6803F1C6
:103D30006C017B6803934FF0FF33029300230193E0
:103D4000042300933823FA682A4800F02BF97B6893
:103D50001B78002B03D0786804F0F2F837E0214B91
:103D60001B6803F190017B6803934FF0FF330293CC
:103D700000230193042300930123FA681E4800F0F6
:103D800011F97B681B78002B03D0786804F0D8F811
:103D90001DE0144B1B6803F148017B6803934FF04F
:103DA000FF33029300230193042300932423FA6832
:103DB000124800F0F7F87B681B78002B03D0786876
:103DC00004F0BEF803E0786804F0BAF800BF1037DA
:103DD000BD4680BDC03F01000C42010068190100D2
:103DE000701A0100DC270020081A01001C1A0100CB
:103DF0002C1A01003C1A01004C1A0100601A010043
:103E000080B584B000AF786002F0DAF9F860054A56
:103E10007B681360F86802F0E3F900BF1037BD4615
:103E200080BD00BFE027002080B500AF0120FFF774
:103E3000E7FF00BF80BD000080B586B000AF3B4605
:103E40001946064800F00CF83B78002B01D000F032
:103E5000F7FD00BF1837BD4680BD00BF3000002011
:103E600080B584B000AF786039603B68002B01D129
:103E700000F0E6FD7B68002B15D13B680A221A7022
:103E80002F4B9A6A3B685A602E4B9A6A3B689A603D
:103E90003B682D4ADA603B6840F2B7221A613B6802
:103EA0002A4A5A61FEE702F08BF9B860284B1B687A
:103EB000FB601FE0FA687B689A4218D1B86802F08C
:103EC0008FF93B6815221A701D4B5A6D3B685A607A
:103ED0001C4B5A6D3B689A603B681B4ADA603B6832
:103EE00040F2BE221A613B68184A5A6124E0FB681E
:103EF000DB68FB60FB68002BDCD1154B1A687B6824
:103F0000DA60134A7B681360B86802F069F93B68AD
:103F100000221A700A4B1A683B685A60094B1A68EB
:103F20003B689A603B68084ADA603B6840F2C92205
:103F30001A613B68054A5A611037BD4680BD00BF13
:103F4000C03F01000C4201007C1A0100F41A01007C
:103F5000F469002080B58AB004AFF860B9607A6077
:103F60003B60BB687B613B68002B01D100F068FDC2
:103F70007B69002B01D10A4B7B613B6802930023D4
:103F800001930123009304237A687969F86800F0AB
:103F9000F1F938613B6918461837BD4680BD00BF4E
:103FA0003000002080B58AB004AFF860B9607A6054
:103FB0003B607B687B61FB6A002B01D100F040FD18
:103FC000BB68002B15D1FB6A0A221A70194B9A6A3A
:103FD000FB6A5A60184B9A6AFB6A9A60FB6A174A36
:103FE000DA60FB6A40F212421A61FB6A144A5A61B3
:103FF000FEE77B69002B01D1124B7B61BB6800227D
:104000001A70BB680022DA61BB6800221A62FB6A80
:104010000393BB6A02937B6A01933B6A00933B68FC
:104020007A69B968F86800F0B9FA00BF1837BD4678
:1040300080BD00BFC03F01000C4201007C1A01009E
:10404000001B01003000002090B58BB004AF7860F9
:1040500039603B68002B01D100F0F2FC7B68002B3B
:1040600015D13B680A221A706E4B9A6A3B685A60F7
:104070006D4B9A6A3B689A603B686C4ADA603B68B1
:1040800040F2D5421A613B68694A5A61FEE702F084
:1040900097F878617B685B69B3F1FF3F1FD07B685D
:1040A0009A697B685B699A4219D3786902F098F83B
:1040B0003B6818221A705B4B1A6E3B685A605A4B69
:1040C0001A6E3B689A603B68584ADA603B684FF466
:1040D0009C621A613B68564A5A6100239DE07B68E6
:1040E0009B695A1C7B689A617B681B69002B2DD0E9
:1040F0007B681B69FB607B681B7803F00203002B65
:1041000002D1FB681B6805E07B689B68043BFA688A
:1041100013441B687A681361786902F061F83B68A0
:1041200000221A703F4B1A683B685A603E4B1A686F
:104130003B689A603B683D4ADA603B6840F2EF4278
:104140001A613B683A4A5A61FB6866E0786902F096
:1041500047F800233B617B6859687B6898687B68F7
:10416000DC687B681B7803F00103002B03D07B68BD
:104170005B681B6900E001233A6802920022019209
:10418000009323460246386900F0F4F8F8603B6873
:104190001B78002B0CD002F013F878617B689B69C8
:1041A0005A1E7B689A61786902F01AF8002334E09D
:1041B0007B68DB69002B2FD07B68DC697B685968E2
:1041C0007B681B6AFA687868A0470346FB72FB7A33
:1041D000012B21D001F0F4FF78617B689B695A1EA6
:1041E0007B689A61786901F0FBFF3B681A221A70BC
:1041F0000C4B9A6E3B685A600B4B9A6E3B689A6008
:104200003B680A4ADA603B6840F219521A613B681F
:10421000074A5A61002300E0FB6818461C37BD4678
:1042200090BD00BFC03F01000C4201007C1A01009C
:10423000141B010080B586B000AFF860B9607A60E9
:104240007B68002B01D100F0FBFBFB68002B15D134
:104250007B680A221A70434B9A6A7B685A60424B09
:104260009A6A7B689A607B68404ADA607B6840F2B1
:104270003B521A617B683E4A5A61FEE7BB68002BDD
:1042800015D17B680A221A70364B9A6A7B685A608D
:10429000354B9A6A7B689A607B68344ADA607B683F
:1042A00040F23C521A617B68314A5A61FEE701F0E4
:1042B00087FF7861FB689B69002B18D1786901F052
:1042C0008FFF7B6817221A70264BDA6D7B685A6065
:1042D000254BDA6D7B689A607B68244ADA607B68DC
:1042E00040F245521A617B68214A5A6137E0FB6807
:1042F0009B695A1EFB689A61786901F071FFFB683F
:104300001B7803F00203002B05D0FB689B68043B7D
:10431000BA68134400E0BB683B6101F051FF78616B
:10432000FB681A693B691A60FB68BA681A617869A8
:1043300001F056FF7B6800221A700A4B1A687B68EE
:104340005A60094B1A687B689A607B68074ADA6092
:104350007B6840F255521A617B68054A5A611837EA
:10436000BD4680BDC03F01000C4201007C1A010027
:10437000281B010080B588B002AFF860B9607A6090
:104380003B607B68002B15D1BB6A08221A70374B43
:104390001A6ABB6A5A60364B1A6ABB6A9A60BB6A71
:1043A000344ADA60BB6A40F2C6621A61BB6A324ABA
:1043B0005A61FEE73B68002B05D03B685A1E3B68FC
:1043C0001340002B02D03B68002B01D1012300E0F9
:1043D0000023002B15D1BB6A08221A70234B1A6ADE
:1043E000BB6A5A60224B1A6ABB6A9A60BB6A214A4E
:1043F000DA60BB6A40F2CA621A61BB6A1E4A5A613D
:10440000FEE701F0DDFE7861BB6A01937B6A0093F1
:104410003B6A3A687968B86800F030F83861BB6A7E
:104420001B78002B19D0786901F0DAFEBB6A1622DE
:104430001A700E4B9A6DBB6A5A600D4B9A6DBB6A2F
:104440009A60BB6A0B4ADA60BB6A40F2D5621A61B5
:10445000BB6A094A5A61002303E0786901F0C0FE93
:104460003B6918461837BD4680BD00BFC03F0100FC
:104470000C4201007C1A01003C1B010080B48BB08F
:1044800000AFF860B9607A603B607B68002B01D0B8
:104490007B6800E004233A68934238BF13467B628E
:1044A000FB689B681A467B6A5B421A40FB689B6804
:1044B00019467B6A013B0B40002B01D07B6A00E070
:1044C000002313443B623A6ABB681A443B685B4270
:1044D0001A40396ABB6819443B68013B0B40002B0A
:1044E00001D03B6800E000231344FB61FB685B687C
:1044F0001A46FB689B68D31A0133BB61FB689B6853
:104500001A46FB699B1A7B61BA697B699A421ED283
:104510003B6B002B04D07A69BB69D21A3B6B1A60E3
:104520007B6B16221A70194B9A6D7B6B5A60184B75
:104530009A6D7B6B9A607B6B164ADA607B6B4FF4EB
:10454000E4621A617B6B144A5A61002318E0FA692D
:10455000FB689A607B6B00221A700C4B1A687B6BAD
:104560005A600B4B1A687B6B9A607B6B094ADA6066
:104570007B6B40F226721A617B6B074A5A613B6A79
:1045800018462C37BD465DF8047B7047C03F0100DC
:104590000C4201007C1A0100541B010090B593B03D
:1045A00004AFF860B9607A603B603B68002B15D1BE
:1045B0007B6D08221A70924B1A6A7B6D5A60914B80
:1045C0001A6A7B6D9A607B6D8F4ADA607B6D40F270
:1045D00091721A617B6D8D4A5A61FEE73B6DB3F1B2
:1045E000FF3F03D0FA6C3B6D9A4201D8012300E0F3
:1045F0000023002B15D17B6D08221A70804B1A6A9C
:104600007B6D5A607F4B1A6A7B6D9A607B6D7E4A28
:10461000DA607B6D40F295721A617B6D7B4A5A615C
:10462000FEE7BB6C002B08D0BB6C5A1EBB6C134062
:10463000002B02D1BB6C032B02D8BB6C002B01D129
:10464000012300E00023002B15D17B6D08221A7096
:104650006B4B1A6A7B6D5A606A4B1A6A7B6D9A6063
:104660007B6D694ADA607B6D40F29A721A617B6DEC
:10467000664A5A61FEE7BB6C002B01D0BB6C00E0C0
:104680000423FB61BB681B7803F00203002B10D0EE
:104690003B6823F003033A6802F00302002A01D1C9
:1046A000002200E0042213443B633B6B04333B6372
:1046B00004E03B68042B38BF04233B63FB6C002BF6
:1046C00000F0DF80BB681B7803F00103002B02D1F0
:1046D000FB69BB6206E07B681B69FA69934238BFDD
:1046E0001346BB62BB6A5A423B6B1A40BB6A591EF7
:1046F0003B6B0B40002B01D0BB6A00E0002313444E
:10470000BB61BB69FA6C02FB03F37B623A6BBB696A
:10471000D31A7A6A13447B62BB681B7803F00103E7
:10472000002B11D07B681B695A427B6A1A407B6858
:104730001B69591E7B6A0B40002B02D07B681B69EA
:1047400000E0002313447B627B6D029300230193FE
:1047500001230093BB6A7A6A7968F868FFF70AFE5A
:1047600078637B6D1B78002B40F0B380BB687A6B5D
:104770001A61BB681B7803F00203002B02D17B6B2C
:104780003B620EE03B6823F003033A6802F0030249
:10479000002A01D1002200E0042213447A6B134462
:1047A0003B620123FB623EE03B6A796BBA690A44D3
:1047B0001A60BB68DB69002B2AD0BB68DC69BB6868
:1047C0001B6A7A6B7968B868A0470346BB75BB7DE6
:1047D000012B1DD07B6D1A221A70094B9A6E7B6DCE
:1047E0005A60084B9A6E7B6D9A607B6D064ADA6060
:1047F0007B6D40F2D7721A617B6D044A5A6169E0A1
:10480000C03F01000C4201007C1A01006C1B01003A
:104810003A6ABB6913443B627A6BBB6913447B639E
:10482000FB6A0133FB62FA6AFB6C9A42BCD33B6AB7
:1048300000221A60BB68DB69002B25D0BB68DC69ED
:10484000BB681B6A7A6B7968B868A0470346FB753A
:10485000FB7D012B18D07B6D1A221A701F4B9A6EAC
:104860007B6D5A601E4B9A6E7B6D9A607B6D1D4A04
:10487000DA607B6D40F2E7721A617B6D1A4A5A6109
:1048800028E0BB6800221A61BB687A685A60BB687E
:104890003A6B9A60BB68FA69DA60BB683A6D5A6134
:1048A000BB6800229A617B6D00221A700B4B1A685C
:1048B0007B6D5A600A4B1A687B6D9A607B6D094A62
:1048C000DA607B6D40F2FA721A617B6D064A5A61BA
:1048D00000E000BF3C37BD4690BD00BFC03F0100B7
:1048E0000C4201007C1A01006C1B010090B589B0DC
:1048F00004AF78607B68002B01D100F0A1F87B68E1
:1049000000221A70424B1A687B685A60414B1A6841
:104910007B689A607B68404ADA607B68C4221A61CF
:104920007B683E4A5A613E4B5B68002B6DD000218C
:104930000220FFF7A1F80346FB7300210320FFF7D5
:104940009BF803461A46FB7B1340FB7300210420AF
:10495000FFF792F803461A46FB7B1340FB73FB7B81
:10496000012B14D07B6806221A70294B9A697B6848
:104970005A60284B9A697B689A607B68264ADA609D
:104980007B68CA221A617B68244A5A61FEE7FFF7F6
:1049900067F8B8607B682C22B9682248FFF7DAFA1A
:1049A0000246214B1A607B681B78002B28D11E4BD6
:1049B0001B68181D1A4B1B68194A526879680391C5
:1049C00002920193042300930823BA680146174812
:1049D000FFF7E8FA7B681B78002B13D1124B1C6899
:1049E0007A6800211248FFF7C1F8A0627B681B7843
:1049F000002B09D10C4B1B681846FEF7EBFF04E0B7
:104A000000BF02E000BF00E000BF1437BD4690BD0C
:104A1000C03F01000C420100881B0100601C010026
:104A200044000020101C0100E4270020241C010089
:104A30003C1C010080B500AF00F064F800BF80BDF1
:104A400080B400AFFEE780B582B000AFFBF706FC94
:104A500078607B6818460837BD4680BD80B584B055
:104A600000AF78607B68002B01D1FFF7E9FF184B9E
:104A70001B68FB60FB68002B01D0002200E00922CC
:104A80007B681A70FB68002B01D0002300E009232B
:104A9000104A52F823207B685A60FB68002B01D033
:104AA000002300E009230C4A52F823207B689A6017
:104AB0007B680A4ADA607B684FF4FE721A617B6891
:104AC000074A5A61FB6818461037BD4680BD00BFD3
:104AD000F8890020C03F01000C4201005844010049
:104AE000CC44010080B483B000AF7860044A7B6896
:104AF000136000BF0C37BD465DF8047B704700BFF4
:104B0000F889002080B500AF034B00221A60FBF744
:104B100083FB00BF80BD00BFF889002080B487B050
:104B200000AFF860B9607A60FB6803F10473DA00E3
:104B3000BB6813449B007B617B697A681A6000BF85
:104B40001C37BD465DF8047B704780B485B000AF6C
:104B5000786039607B6803F1C063FB60FB683A688A
:104B60001A6000BF1437BD465DF8047B704780B4FF
:104B700085B000AF786039607B6803F18063FB60CB
:104B8000FB683A681A6000BF1437BD465DF8047BC5
:104B9000704780B584B000AFF860B9607A60B968DA
:104BA000F868FFF7E4FF7968F868FFF7CEFF00BF09
:104BB0001037BD4680BD000080B582B000AF786080
:104BC00039607B68B3F1804F02D07B68194A934209
:104BD00000BF3B681B78DB071A463B685B681B0617
:104BE000134343F400427B681A603B68DB681B0494
:104BF0003A68127A1A437B689A623B681B691B0405
:104C00003A68527A1A437B68DA623B689B7A1B07E0
:104C100043F0806343F47D437A68536078683B686F
:104C20001B7D1A460021FFF779FF00BF0837BD46FC
:104C300080BD00BF0004004080B582B000AF786046
:104C40000B46FB707B68B3F1804F02D07B68074A4C
:104C5000934200BF7B680433FA78FF211846FFF7C0
:104C600098FF00BF0837BD4680BD00BF000400406C
:104C700080B483B000AF78607B68B3F1804F02D01E
:104C80007B68074A934200BF7B681B6823F00102E0
:104C90007B681A6000BF0C37BD465DF8047B704727
:104CA0000004004080B483B000AF78607B68B3F14B
:104CB000804F02D07B68074A934200BF7B681B6825
:104CC00043F001027B681A6000BF0C37BD465DF8F7
:104CD000047B70470004004080B487B000AFF860E8
:104CE000B9607A60FB6803F10473DA00BB681344AF
:104CF0009B007B617B697A681A6000BF1C37BD46E8
:104D00005DF8047B704780B485B000AF786039608F
:104D10007B6803F10473DA003B6813449B00FB607B
:104D2000FB681B6818461437BD465DF8047B704766
:104D300080B483B000AF786001227B6802FA03F38D
:104D400018460C37BD465DF8047B704780B582B0CD
:104D500000AF78607868FFF7EBFF03461846083726
:104D6000BD4680BD80B584B000AF78607B680133FC
:104D7000B3FA83F3DBB2C3F11F03FB60F868FFF7FC
:104D8000D7FFFB6818461037BD4680BD80B500AF21
:104D900000BF12210348FFF7B6FF0346002BF8D1EE
:104DA00000BF80BD04300E4080B500AFFFF7EEFFBE
:104DB000034B5B681B0C03F00303DBB2184680BD9A
:104DC00000300E4080B584B000AF78600123FB60F6
:104DD0007B68124A934204D80023FB600023BB6027
:104DE00008E07B680E4A934202D80123BB6001E0D1
:104DF0000223BB60FA6810210A48FFF76DFF094BD8
:104E0000D3F8003123F08072BB681B0605491343B9
:104E1000C1F8003100BF1037BD4680BD0048E80131
:104E20000090D00300400E4080B483B000AF054B2B
:104E30001B687B607B6818460C37BD465DF8047BB9
:104E4000704700BF4C00002080B582B000AFFBF778
:104E500007FB7860064BD3F800311B0A03F01F03F1
:104E600001337A6802FB03F318460837BD4680BD5C
:104E700000400E4080B582B000AF0D4800F03CFD10
:104E80000346FB70FB78072B05D0092B07D1FBF7F6
:104E9000E7FA786006E0FFF7C7FF786002E00023DA
:104EA0007B6000BF7B6818460837BD4680BD00BFE9
:104EB00006000E0080B584B000AF78607B68002BE0
:104EC0001CD11B4800F018FD0346FB7200BFFB7AA3
:104ED000013B072B23D801A252F823F0014F000019
:104EE0001F4F00001F4F00000F4F00001F4F00001A
:104EF0001F4F0000074F0000174F0000002312E073
:104F00000023FB600EE0FFF78FFFF8600AE0FBF77D
:104F1000DFFAF86006E0FFF797FFF86002E0002391
:104F2000FB6000BFFB6818461037BD4680BD00BF60
:104F3000B800320080B485B000AF786039601E4B95
:104F40005B6803F04073FB600023BB6012E01B4A08
:104F5000BB68DB0013441A793B68DBB29A4206D186
:104F6000164ABB6852F833307A689A4206D9BB6851
:104F70000133BB60BB68042BE9D900E000BFBB680C
:104F8000052B02D10323FB6005E00C4ABB68DB0064
:104F900013445B79FB60FB681B06FB60064B5B6898
:104FA00023F040720449FB6813434B6000BF143781
:104FB000BD465DF8047B704700000E40E0440100F0
:104FC00080B582B000AF0E4B1B6C002B14BF0123C9
:104FD0000023FB710A4B41F671321A64FBF736FA73
:104FE000034600211846FFF7A5FFFB79002B02D0EE
:104FF000034B00221A6400BF0837BD4680BD00BFC6
:1050000000000E4080B584B000AF786039600C4B72
:105010001B6C002B14BF01230023FB73084B41F6CC
:1050200071321A6439687868FFF784FFFB7B002BC4
:1050300002D0034B00221A6400BF1037BD4680BD6A
:1050400000000E4080B487B000AF78600F237B6112
:105050007B6803333B617B69FB60FA683B69934281
:1050600028BF1346BB60BB681B07BB60BB68184604
:105070001C37BD465DF8047B7047000080B400AF6C
:10508000044B5B6A1B0903F003031846BD465DF839
:10509000047B704700400E4080B483B000AF78605E
:1050A000074B5B6A23F030027B681B010449134302
:1050B0004B6200BF0C37BD465DF8047B704700BFF4
:1050C00000400E4090B585B000AF78600023BB6013
:1050D0007B68354A934206D0344A934203D0344A1F
:1050E000934200D000E000BF786800F005FC034662
:1050F000FB607B682C4A93420DD02C4A934211D01E
:105100002B4A934200D014E02A4BD3F8803003F0AE
:105110000703FB600DE0274BD3F8843003F007034F
:10512000FB6006E0234BD3F8883003F00703FB60F5
:1051300000BFFB68042B2ED801A252F823F000BF59
:1051400091510000555100005D5100006D5100006B
:1051500065510000FBF7DEF9B8601FE0FBF7ECF9E2
:10516000B8601BE0FBF7DFF9B86017E0FBF74EF91A
:105170000446104BD3F800311B0E03F0010301333A
:105180001846FFF7E3FD0346B4FBF3F3BB6005E00D
:105190000023BB6002E00023BB6000BFBB68184671
:1051A0001437BD4690BD00BF030020000500240059
:1051B00002001E0000400E4080B483B000AF786053
:1051C0000A4BD3F8443103F00103002B08D100BF90
:1051D000064BD3F840217B681340002BF8D100E048
:1051E00000BF0C37BD465DF8047B704700400E40A1
:1051F00080B400AF00BFBD465DF8047B704780B44B
:1052000000AF00BFBD465DF8047B704780B582B03B
:1052100000AF7860786800F081F9034601331846E2
:105220000837BD4680BD80B582B000AF7860396078
:105230003B68013B1946786800F032FA00BF083736
:10524000BD4680BD80B586B000AF78600B46FB7070
:1052500000233B617B681B0A03F00F03013B092B12
:1052600044D801A252F823F0915200009D52000050
:10527000ED520000ED52000097520000A3520000D2
:10528000AD520000ED520000B7520000C3520000C2
:10529000184B7B6118E0184B7B6115E0174B7B6165
:1052A00012E0174B7B6101233B610DE0154B7B61E5
:1052B00010233B6108E0144B7B614FF480333B616A
:1052C00002E0124B7B6100BF7B681B0B03F01F03E6
:1052D000FB603B69002B02D03869FFF76DFFFB785C
:1052E0001A46F9687869FFF7F7FC00E000BF183745
:1052F000BD4680BD00400E40B0400E40C0400E4054
:10530000E0400E40E8400E40F0400E4050410E405C
:1053100080B584B000AF78607B6803F47813B3F590
:10532000A01F7DD0B3F5A01F1AD8B3F5202F50D001
:10533000B3F5202F08D8B3F5003F4ED0B3F5802F3A
:1053400038D0002B32D0D8E0B3F5602F00F0C88001
:10535000B3F5801F00F0C880B3F5402F4CD0CCE0EF
:10536000B3F5001F00F08B80B3F5001F0AD8B3F52A
:10537000D01F00F08980B3F5F01F4CD0B3F5B01FFB
:105380005CD0BAE0B3F5381F6AD0B3F5381F04D843
:10539000B3F5101F00F09F80AFE0B3F5401F00F0A1
:1053A0008680B3F5481F00F0A380A6E0FBF758F80D
:1053B000F860A5E0FBF754F8F860544BD3F80C31D3
:1053C0001B0AC3F308030133FA68B2FBF3F3FB6073
:1053D00096E0FBF745F8F86092E0FBF741F8F860DB
:1053E0004A4BD3F808311B0AC3F308030133FA68A8
:1053F000B2FBF3F3FB6083E0FBF732F8F860434B5A
:10540000D3F814311B0A03F01F030133FA68B2FB0F
:10541000F3F3FB6074E03E48FFF754FEF8606FE082
:105420003C48FFF74FFEF860384BD3F8303103F0BB
:105430000303FA6822FA03F3FB6061E03448FFF7E4
:1054400041FEF860314BD3F8203103F00F031846CA
:10545000FFF77CFC0246FB68B3FBF2F3FB604FE016
:105460002B48FFF72FFEF860284BD3F820311B099B
:1054700003F00303FA6822FA03F3FB6040E02648D6
:10548000FFF720FEF8603BE02348FFF71BFEF860C3
:105490001E4BD3F828311B0903F003031846FFF70E
:1054A00055FC0246FB68B3FBF2F3FB6028E01A48A8
:1054B000FFF708FEF860154BD3F828311B0A03F0FC
:1054C000030304331846FFF741FC0246FB68B3FBB5
:1054D000F2F3FB6014E00F48FFF7F4FDF8600FE013
:1054E000FFF7C8FCF8600BE0FFF79EFCF86007E0F0
:1054F0000020FFF7DFFCF86002E00023FB6000BF44
:10550000FB6818461037BD4680BD00BF00400E4006
:1055100002001E00050024000300200080B584B0B6
:1055200000AF78607B681B0903F00F03BB60BB68AA
:10553000013B092B00F2A08001A252F823F000BF2A
:105540006955000079550000895500009955000003
:105550007956000079560000A9550000B9550000A1
:10556000075600005B560000474BD3F800311B0A7A
:1055700003F01F03FB6082E0434BD3F814311B0A96
:1055800003F01F03FB607AE03F4BD3F800311B0EA2
:1055900003F00103FB6072E03B4BD3F80C311B0AB4
:1055A000C3F30803FB606AE0374BD3F808311B0AEA
:1055B000C3F30803FB6062E07B68344A934203D084
:1055C000334A93420DD01AE02F4BD3F8203103F029
:1055D0000F03FB60F868FFF7B9FB0346013BFB6074
:1055E00010E0294BD3F820311B0903F00303FB60C3
:1055F000F868FFF7ABFB0346013BFB6002E00023CA
:10560000FB6000BF3BE07B68224A934203D0224A02
:1056100093420ED01DE01C4BD3F828311B0903F038
:105620000303FB60F868FFF791FB0346013BFB6057
:1056300012E0154BD3F828311B0A03F00303FB607B
:10564000FB6804331846FFF781FB0346013BFB6010
:1056500002E00023FB6000BF11E07B680F4A934229
:1056600006D1094BD3F8303103F00303FB6002E0AD
:105670000023FB6000BF02E00023FB6000BFFB686B
:1056800018461037BD4680BD00400E40800616000B
:1056900080162E0090171A0090273000A0091400E1
:1056A00080B584B000AF786039607B681B0903F077
:1056B0000F03FB60FB68013B092B00F2078101A28D
:1056C00052F823F0ED56000039570000CD58000085
:1056D00051570000CD580000CD5800006D57000014
:1056E000B557000035580000A3580000FFF768FCCC
:1056F0007948FFF767FBFFF77BFD784BD3F8003164
:1057000023F4F8523B681B0274491343C1F800317B
:10571000FAF77CFEB860FFF747FB03461946B86806
:10572000FFF770FC6E48FFF7F3FD03461846FFF7DE
:1057300049FBFFF764FDCAE0684BD3F8143123F44A
:10574000F8523B681B0265491343C1F81431BEE0AF
:10575000624BD3F80C3123F4FF3323F480733A689F
:1057600012025E491343C1F80C31B0E0FFF728FC88
:105770005948FFF727FB594BD3F8083123F4FF337F
:1057800023F480733A68120254491343C1F8083174
:10579000FAF73CFEB860FFF707FB03461946B86806
:1057A000FFF730FC4E48FFF7B3FD03461846FFF7FE
:1057B00009FB8CE07B684B4A934215D04A4A9342DE
:1057C00024D04A4A934200D033E04FF48020FFF7C0
:1057D000F3FC424BD3F8303123F003023F493B68DE
:1057E0001343C1F8303124E03868FFF7BBFA386062
:1057F0000420FFF7E1FC394BD3F8203123F00F02EE
:1058000036493B681343C1F8203112E03868FFF78E
:10581000A9FA38600420FFF7CFFC304BD3F82031D1
:1058200023F030023B681B012C491343C1F820319F
:1058300000BF4CE07B682E4A934203D02D4A93422E
:1058400013D02DE03868FFF78DFA38604020FFF75D
:10585000B3FC224BD3F8283123F030023B681B0104
:105860001E491343C1F828311AE03B687F2B02D848
:105870003B680E2B00BF3868FFF774FA0346043B01
:105880003B604020FFF798FC144BD3F8283123F4F9
:1058900040723B681B0211491343C1F8283100BF15
:1058A00015E07B68114A934200D00EE04FF480204F
:1058B000FFF782FC094BD3F8303123F0030207498C
:1058C0003B681343C1F8303100BF00E000BF00BFA8
:1058D0001037BD4680BD00BF0148E80100400E40C2
:1058E00000250A008006160080162E00A00914006C
:1058F00090171A009027300080B485B000AF786010
:105900000123FB737B6803F00F03BB60BB68013BA3
:10591000072B00F2C48001A252F823F03D59000089
:1059200093590000C35900009F5A0000095A000013
:10593000395A00009F5A00005D5A00005D4BD3F8B1
:10594000943003F00703023B052B1ED801A252F846
:1059500023F000BF79590000735900006D59000011
:105960007F5900008B590000855900000223FB730A
:105970000EE00323FB730BE00423FB7308E00B230F
:10598000FB7305E00C23FB7302E00523FB7300BFF0
:1059900088E0484BD3F8803003F00703022B06D091
:1059A000042B07D0012B08D10323FB7308E002234B
:1059B000FB7305E00A23FB7302E00123FB7300BFC6
:1059C00070E03C4BD3F8843003F00703013B032B1A
:1059D00016D801A252F823F0E9590000EF5900004F
:1059E000FB590000F55900000323FB730BE0022371
:1059F000FB7308E00A23FB7305E00623FB7302E058
:105A00000123FB7300BF4DE02A4BD3F8883003F02D
:105A10000703022B06D0042B07D0012B08D1032348
:105A2000FB7308E00223FB7305E00A23FB7302E02B
:105A30000123FB7300BF35E01E4B1B6F03F0010316
:105A4000002B04D0012B05D10923FB7305E00723AC
:105A5000FB7302E00123FB7300BF23E0154BD3F877
:105A60005C3103F03003102B0CD0102B02D8002B2C
:105A700005D010E0202B08D0302B09D00BE00123FB
:105A8000FB730BE00723FB7308E00423FB7305E0C3
:105A90000823FB7302E00123FB7300BF02E0002335
:105AA000FB7300BFFB7B18461437BD465DF8047BD3
:105AB000704700BF00400E4080B58AB000AF7860EC
:105AC0000B46FB7003237B62032387F823300023FC
:105AD000BB6100237B617B68112B19D1FB78042B00
