S019000052544F535F46696E616C5F50726F6A6563742E73333714
S113000000000420DD0300000904000009040000CE
S113001009040000090400000904000009040000A8
S11300200904000009040000090400000904000098
S11300300904000009040000ABA900006FAC000033
S11300400904000009040000090400000904000078
S11300500904000009040000090400000904000068
S1130060090400000904000001AF0000510500006C
S11300700904000009040000090400000904000048
S113008009040000090400000DAF00000904000089
S11300900904000009040000090400000904000028
S11300A00904000009040000090400000904000018
S11300B00904000009040000090400000904000008
S11300C009040000090400000904000009040000F8
S11300D009040000090400000904000009040000E8
S11300E009040000090400000904000009040000D8
S11300F009040000090400000904000009040000C8
S113010009040000090400000904000010B5054CAE
S1130110237833B9044B13B10448AFF300800123AF
S1130120237010BD3401002000000000DCE9000051
S113013008B5034B1BB103490348AFF3008008BD66
S11301400000000038010020DCE90000154B002B02
S113015008BF134B9D46A3F5803A00218B460F46FA
S11301601348144A121A0BF0D2F90F4B002B00D08B
S113017098470E4B002B00D0984700200021040024
S11301800D000D48002802D00C48AFF300800BF09E
S11301908FF9200029000AF0FDFE0BF075F900BF6D
S11301A0000008000000042000000000000000001F
S11301B034010020B06A00200000000000000000AC
S11301C080B582B000AF0121104803F0C1F90121CC
S11301D00F4803F0BDF900237B600FE00D4A7B68F4
S11301E012F833000B4A7B68DB0013445968002380
S11301F0042204F0EBFE7B6801337B607B68012BF7
S1130200ECDD002318460837BD4680BD404105009B
S113021000350A0038B5000080B582B000AF00F0A8
S1130220F5F878600A4B1B68094A43F08073136041
S1130230084B00221A60084B1B68074A43F001036D
S11302401360786802F0E2FE00BF0837BD4680BD47
S1130250FCED00E0041000E0001000E080B483B086
S113026000AF054B1B687B607B6818460C37BD46A6
S11302705DF8047B704700BF041000E0B0B586B0A1
S113028000AF786000F0C2F803464FF00004C7E9FD
S113029004347B681C464FF00005D7E904010B4A7F
S11302A04FF000030AF070FF02460B462046294631
S11302B00AF06AFF03460C46C7E90234D7E9023460
S11302C0184621461837BD46B0BD00BF40420F0056
S11302D080B400AF044BDB6C1B0EDBB21846BD468A
S11302E05DF8047B704700BFB081E00F80B582B039
S11302F000AF164B01225A64FFF7EAFF0346FB7175
S1130300FB79002B0CD1124B4AF6E8521A60114BC0
S11303101B68104A43F0040313600D4B00221A605B
S1130320FB79012B05D80C4B1B680B4A43F4005393
S113033013600A4B1B6A23F44413084A43F48813DA
S1130340136200BF0837BD4680BD00BF00000E40E9
S113035090310E4098310E4064310E4000400E4002
S113036080B582B000AF11237B60FFF7BFFF084860
S113037004F02EFA0521786803F036FB00220121EF
S1130380012003F0B5FC00BF0837BD4680BD00BFA7
S113039048B5000080B582B000AFFFF711FF00F050
S11303A035F87860786802F031FE00BF0837BD4642
S11303B080BD80B582B000AF00F028F8786001F00D
S11303C0C7FE02467B68B3FBF2F33B6038680AF071
S11303D061FC00BF0837BD4680BD00000648804769
S11303E00649074A074B9A42BEBF51F8040B42F82C
S11303F0040BF8E7FFF7AAFEE9040000E8E90000AF
S11304000000002034010020FEE700BF80B582B068
S113041000AF00F025F878600A4BD3F808311B0AC6
S1130420C3F308033B603B6801337A68B2FBF3F320
S11304307B60054A7B6813607B6818460837BD46B5
S113044080BD00BF00400E400800002080B400AF13
S1130450024B1846BD465DF8047B7047005A6202A1
S113046080B483B000AF164BD3F8943003F0070385
S1130470032B08D0042B02D0022B08D00BE0114B25
S11304801B687B600BE04FF400437B6007E00E4B7E
S11304901B687B6003E00D4B1B687B6000BF084B4F
S11304A0D3F800311B0A03F01F0301337A68B2FB4F
S11304B0F3F318460C37BD465DF8047B704700BF64
S11304C000400E4004000020000000200C0000202A
S11304D080B400AF034B1B681846BD465DF8047B2F
S11304E0704700BF0000002080B400AF074B084AEB
S11304F09A60064BD3F88830044A43F47003C2F878
S1130500883000BFBD465DF8047B704700ED00E015
S11305100000000080B400AF4FF400431846BD460D
S11305205DF8047B704780B400AF4FF47A731846CB
S1130530BD465DF8047B704780B400AF034B1B6875
S11305401846BD465DF8047B704700BF04000020D8
S113055080B483B000AF174B02225A60164B0222BC
S11305605A60144B01225A61134B5B6A7B60134B34
S11305701B78DBB21946124A7B6842F821300F4BD4
S11305801B78DBB21A460F4B53F822307A689A4232
S113059007D90A4B1B78DBB219460A4A7B6842F832
S11305A02130094B01221A7000BF0C37BD465DF89B
S11305B0047B70470080014000840140500100200A
S11305C054010020640100205101002080B483B054
S11305D000AF7860FEE7000080B483B000AF214B29
S11305E07B607B6802221A617B6802225A617B6805
S11305F01D4A9A617B681D4ADA617B684FF4806208
S11306001A627B6800229A627B6800225A627B68C5
S11306100022DA627B68144A9A647B68144ADA64BA
S11306207B6810221A657B6800229A657B68002229
S11306305A657B680022DA657B6807330D4A1068C7
S113064018607B680C4A10681860918892799980C8
S11306509A717B6820229A7100BF0C37BD465DF801
S1130660047B70478041002058B5000074010020CD
S11306707405002064B5000068B5000080B58AB038
S113068000AFF860B9607A603C4B1B78002B01D155
S1130690FFF7A2FFFA6813465B001344DB004833FC
S11306A0364A1344BB61BB68FB61BB691B693B628F
S11306B0BB69DB687B6100237B623A6A7B699A428F
S11306C02AD9BB699A683B6AD31A3B613A697B6849
S11306D0934228BF13463B61BB695A683B6A134483
S11306E03A691946F8690AF007FF7A6A3B691344C4
S11306F07B62FA693B691344FB617A683B69D31AEC
S11307007B603A6A3B6913443B62BB699B683A6A03
S11307109A4201D100233B627A693B6AD31A3B6156
S11307203A697B68934228BF13463B613B69002BBF
S113073018D0BB695A683B6A13443A691946F86988
S11307400AF0DAFE7A6A3B6913447B62FA693B6910
S11307501344FB617A683B69D31A7B603A6A3B694C
S113076013443B627B6A002B02D0BB693A6A1A616C
S11307707B6A18462837BD4680BD00BF80410020F3
S113078080B58AB000AFF860B9607A60BB687B62FC
S1130790FB685A1C13465B001344DB003F4A1344B6
S11307A03B623B6A1B69FB613B6ADB68BB61FA69BC
S11307B0BB699A4254D83B6A9A68BB69D31A013B15
S11307C07B617A697B689A420FD33B6A5A68BB693A
S11307D013447A68796A18460AF08EFEBA697B680F
S11307E01A443B6ADA60012354E07A69FB691344D2
S11307F07B617A697B689A424BD33B6A9A68BB698E
S1130800D31A3B613A697B689A420ED93B6A5A68AB
S1130810BB6913447A68796A18460AF06DFEBA69AE
S11308207B681A443B6ADA6018E03B6A5A68BB6921
S113083013443A69796A18460AF05EFE3B6A5868BE
S11308407A6A3B69D1187A683B69D31A1A460AF066
S113085053FE7A683B69D21A3B6ADA60012319E0D5
S1130860FA69BB69D31A013B7B617A697B689A4256
S11308700FD33B6A5A68BB6913447A68796A18468D
S11308800AF03AFEBA697B681A443B6ADA600123CB
S113089000E0002318462837BD4680BD8041002073
S11308A080B586B000AFF860B9607A603B602E4BCB
S11308B01B78002B01D1FFF78FFE2B4B1B691A46C7
S11308C0FB68934248D203F013FC3861FB68002BA9
S11308D032D02549FB685A1C13465B001344DB00E5
S11308E00B44BA681A602049FB685A1C13465B0023
S11308F01344DB000B4404337A681A601A49FA681B
S113090013465B001344DB000B4420333A681A603F
S11309101549FA6813465B001344DB000B44283383
S113092000221A601049FA6813465B001344DB0086
S11309300B44243300221A600B49FA6813465B0007
S11309401344DB000B442C333A6A1A60386903F011
S1130950DFFB00237B6102E04FF0FF337B617B69A7
S113096018461837BD4680BD8041002080B586B04A
S113097000AFF860B9607A603B602E4B1B78002BA7
S113098001D1FFF729FE2B4B5B691A46FB689342A2
S113099047D203F0ADFB3861FB68002B31D0254909
S11309A0FA6813465B001344DB000B444833BA680F
S11309B01A602049FA6813465B001344DB000B44B9
S11309C04C337A681A601B49FA6813465B00134477
S11309D0DB000B4450333A681A601649FA68134630
S11309E05B001344DB000B44583300221A601149A6
S11309F0FA6813465B001344DB000B4454330022B3
S1130A001A600C49FA6813465B001344DB000B447C
S1130A105C333A6A1A60386903F07AFB00237B611D
S1130A2002E04FF0FF337B617B6918461837BD46FF
S1130A3080BD00BF8041002080B487B000AFF86063
S1130A40B9607A6000233B6102E03B6901333B619A
S1130A50BA683B6913441B78002BF6D13A697B686A
S1130A609A4201D97B683B613B69FE2B06D8FB683F
S1130A705A1CFA603A69D2B21A7011E0FB685A1C27
S1130A80FA60FF221A70FB685A1CFA603A69D2B203
S1130A901A703B69190AFB685A1CFA60CAB21A70C8
S1130AA000237B610AE0BA68531CBB60FB68591CD5
S1130AB0F96012781A707B6901337B617A693B694A
S1130AC09A42F0D3FB6818461C37BD465DF8047B98
S1130AD0704780B483B000AF78607B6804331846F5
S1130AE00C37BD465DF8047B704780B582B000AF1B
S1130AF0FB1C012219460120FFF7C0FD03467B6061
S1130B007B68002B44DDFB78042B1AD0042B06DC15
S1130B10022B10D0022B11DC012B09D02DE0062B67
S1130B2015D0062B10DB072B14D0802B15D024E016
S1130B3000F07CFA31E000F02DFB2EE000F0F8FC30
S1130B402BE000F0C1FC28E000F046FB25E000F0BB
S1130B5081FF22E000F060FF1FE0FB1C0122194628
S1130B600120FFF78BFD03467B607B68002B11DDC2
S1130B70FB78184600F0D4FE0CE0FB785BB2002B47
S1130B800ADAFB1C012219460120FFF777FD03E076
S1130B9000BF02E000BF00E000BF00BF0837BD4651
S1130BA080BD000080B58CB000AF01233B713B1DBC
S1130BB00133FB61FB69FB62334B5B69BB620BE096
S1130BC0BB6ADAB2FB6A591CF96262F07F02D2B2E4
S1130BD01A70BB6ADB09BB62BB6A7F2BF0D8FB6A65
S1130BE05A1CFA62BA6AD2B21A70FB6AFB61274BCA
S1130BF01B68BB61244BDB68BA69D31A7B617B69D0
S1130C001B017B617B691B117B61FB697B627B69D7
S1130C103B620BE03B6ADAB27B6A591C796262F090
S1130C207F02D2B21A703B6ADB093B623B6A7F2BBC
S1130C30F0D87B6A5A1C7A623A6AD2B21A707B6A1A
S1130C40FB61FA693B1DD31A1A463B1D1946012064
S1130C50FFF796FD03463B613B69002B09D00A4A26
S1130C60BB69D360084B1B78013BDAB2064B1A70A0
S1130C7004E0054B5B690133034A53613B69184641
S1130C803037BD4680BD00BF8C150020041000E045
S1130C9080B58AB000AFF860B9607A60654B1B78A4
S1130CA0012B10D0634B1B78002B00F0A780614B05
S1130CB01B78022B09D1FFF775FF5E4B1B78012BC4
S1130CC040F09E8001E000BF00E000BF7B681F2B66
S1130CD009D8584BDA697B6822FA03F303F001035D
S1130CE0002B40F08F807B68172B07D8FB68013BF3
S1130CF0FB607B68DAB2FB681A703DE0BA68FB6897
S1130D00D31AFB61FB697F2B12D9FB69DA09FB68F3
S1130D10013BFB60D2B2FB681A70FB69DBB2FA6874
S1130D20013AFA6063F07F03DAB2FB681A7006E0F6
S1130D30FB68013BFB60FB69DAB2FB681A707B68F5
S1130D407F2B12D97B68DA09FB68013BFB60D2B2C6
S1130D50FB681A707B68DBB2FA68013AFA6063F0E8
S1130D607F03DAB2FB681A7006E0FB68013BFB60A4
S1130D707B68DAB2FB681A702F4B1B68BB612D4B82
S1130D80DB68BA69D31A7B617B691B017B617B6970
S1130D901B097B61BB687B627B693B620BE03B6A3E
S1130DA0DAB27B6A591C796262F07F02D2B21A709D
S1130DB03B6ADB093B623B6A7F2BF0D87B6A5A1C97
S1130DC07A623A6AD2B21A707B6ABB60BA68FB680C
S1130DD0D31A1A46F9680120FFF7D2FC03463B6197
S1130DE03B69002B03D0134ABB69D3600BE0114B62
S1130DF01B780133DAB20F4B1A7004E000BF02E033
S1130E0000BF00E000BF0D4BDA6E0C4B1B6F9A4223
S1130E100BD0084B9B78002B07D1064B01229A700C
S1130E20FFF763FE034B00229A7000BF2837BD46CC
S1130E3080BD00BF8C150020041000E0804100201C
S1130E4080B586B002AFF860B9607A603B60002379
S1130E5000934FF48053144A14490120FFF720FDF6
S1130E60002300930823124A10490120FFF77EFD56
S1130E70104B4FF080521A610F4B1B680D4AD36020
S1130E800C4A7B6813620B4AFB685360094ABB68CF
S1130E909360084A3B685362064B00221A7000BFF5
S1130EA01037BD4680BD00BF840500207CB500001E
S1130EB0841500208C150020041000E080B483B059
S1130EC000AF7860044A7B68136100BF0C37BD46ED
S1130ED05DF8047B704700BF8C15002080B584B09A
S1130EE000AF786003F004F9F8600848FFF7F1FDFB
S1130EF0B8607A68B968B868FFF7CAFEF86803F0A2
S1130F0007F900BF1037BD4680BD00BFBC150020E7
S1130F1080B588B000AF7860396003F0E9F8786193
S1130F201648FFF7D6FD38613B69FB60FB68FB613F
S1130F303B68BB610BE0BB69DAB2FB69591CF96120
S1130F4062F07F02D2B21A70BB69DB09BB61BB6974
S1130F507F2BF0D8FB695A1CFA61BA69D2B21A70B5
S1130F60FB69FB607A68F9683869FFF791FE786974
S1130F7003F0CEF800BF2037BD4680BDBC1500206D
S1130F8080B58CB000AFF860B9607A6003F0B0F857
S1130F90F8612548FFF79DFDB861BB697B617B69FA
S1130FA0FB62BB68BB620BE0BB6ADAB2FB6A591C2A
S1130FB0F96262F07F02D2B21A70BB6ADB09BB62CB
S1130FC0BB6A7F2BF0D8FB6A5A1CFA62BA6AD2B2A7
S1130FD01A70FB6A7B617B697B627B683B620BE016
S1130FE03B6ADAB27B6A591C796262F07F02D2B240
S1130FF01A703B6ADB093B623B6A7F2BF0D87B6A41
S11310005A1C7A623A6AD2B21A707B6A7B61FA68B5
S11310107969B869FFF73CFEF86903F079F800BF15
S11310203037BD4680BD00BFBC15002080B58CB0F4
S113103000AF554B1B78002B40F0A280524B01228D
S11310401A7003F055F8F8600A2250490120FFF79E
S113105097FBF86803F05CF80A20FFF73FFF03F002
S113106047F8B8604A48FFF734FD78607B683B6016
S11310703B68FB62444B5B68BB620BE0BB6ADAB261
S1131080FB6A591CF96262F07F02D2B21A70BB6A21
S1131090DB09BB62BB6A7F2BF0D8FB6A5A1CFA627D
S11310A0BA6AD2B21A70FB6A3B603B687B62364B09
S11310B09B683B620BE03B6ADAB27B6A591C79623B
S11310C062F07F02D2B21A703B6ADB093B623B6A70
S11310D07F2BF0D87B6A5A1C7A623A6AD2B21A70B1
S11310E07B6A3B603B68FB61274B1B69BB610BE080
S11310F0BB69DAB2FB69591CF96162F07F02D2B2B2
S11311001A70BB69DB09BB61BB697F2BF0D8FB6933
S11311105A1CFA61BA69D2B21A70FB693B603B6827
S11311207B6102233B610BE03B69DAB27B69591CAA
S1131130796162F07F02D2B21A703B69DB093B61CC
S11311403B697F2BF0D87B695A1C7A613A69D2B229
S11311501A707B693B60182239687868FFF798FD3C
S1131160B86802F0D5FF084B5B6A002B02D0064B2F
S11311705B6A984700F0DCF900F0A6F900F06AFC1D
S113118000BF3037BD4680BD8C15002070B500000F
S1131190BC15002080B582B000AF02F0A9FF7860D2
S11311A00B48FFF796FC38600A4B1B78002B07D0DE
S11311B00B2239683868FFF76BFD064B00221A7062
S11311C0786802F0A5FF00BF0837BD4680BD00BFA8
S11311D0BC1500208C15002080B58CB000AF02F047
S11311E087FFF8604548FFF774FCB860BB687B6014
S11311F07B68FB62424B5B68BB620BE0BB6ADAB2A2
S1131200FB6A591CF96262F07F02D2B21A70BB6A9F
S1131210DB09BB62BB6A7F2BF0D8FB6A5A1CFA62FB
S1131220BA6AD2B21A70FB6A7B607B687B62344B09
S11312309B683B620BE03B6ADAB27B6A591C7962B9
S113124062F07F02D2B21A703B6ADB093B623B6AEE
S11312507F2BF0D87B6A5A1C7A623A6AD2B21A702F
S11312607B6A7B607B68FB61254B1B69BB610BE080
S1131270BB69DAB2FB69591CF96162F07F02D2B230
S11312801A70BB69DB09BB61BB697F2BF0D8FB69B2
S11312905A1CFA61BA69D2B21A70FB697B607B6826
S11312A07B6102233B610BE03B69DAB27B69591C29
S11312B0796162F07F02D2B21A703B69DB093B614B
S11312C03B697F2BF0D87B695A1C7A613A69D2B2A8
S11312D01A707B697B6018227968B868FFF7D8FCBC
S11312E0F86802F015FF064B5B6A002B02D0044B32
S11312F05B6A984700BF3037BD4680BDBC150020EF
S11313008C15002080B592B000AF786002F0F0FE3A
S113131078616B48FFF7DDFB38613B69FB60FB6874
S11313207B647B681A68674B1B69D31A9B083B6410
S11313300BE03B6CDAB27B6C591C796462F07F027F
S1131340D2B21A703B6CDB093B643B6C7F2BF0D848
S11313507B6C5A1C7A643A6CD2B21A707B6CFB6058
S1131360FB68FB637B689B68BB630BE0BB6BDAB217
S1131370FB6B591CF96362F07F02D2B21A70BB6B2B
S1131380DB09BB63BB6B7F2BF0D8FB6B5A1CFA6386
S1131390BA6BD2B21A70FB6BFB607B685B6820226D
S11313A01946F868FFF748FBF8600922F9683869BC
S11313B0FFF76EFC3B69FB60FB687B637B681A6824
S11313C0404B1B69D31A9B083B630BE03B6BDAB2BF
S11313D07B6B591C796362F07F02D2B21A703B6B4B
S11313E0DB093B633B6B7F2BF0D87B6B5A1C7A6326
S11313F03A6BD2B21A707B6BFB60FB68FB627B6852
S1131400DB68BB620BE0BB6ADAB2FB6A591CF962A7
S113141062F07F02D2B21A70BB6ADB09BB62BB6A9C
S11314207F2BF0D8FB6A5A1CFA62BA6AD2B21A70DD
S1131430FB6AFB60FB687B627B681B693B620BE0B9
S11314403B6ADAB27B6A591C796262F07F02D2B2DB
S11314501A703B6ADB093B623B6A7F2BF0D87B6ADC
S11314605A1C7A623A6AD2B21A707B6AFB60FB68D1
S1131470FB610023BB610BE0BB69DAB2FB69591C59
S1131480F96162F07F02D2B21A70BB69DB09BB61F9
S1131490BB697F2BF0D8FB695A1CFA61BA69D2B2D6
S11314A01A70FB69FB601522F9683869FFF7F0FBD5
S11314B0786902F02DFE00BF4837BD4680BD00BFED
S11314C0BC1500208C15002080B500AF074B1B6AAB
S11314D0002B08D0054B1B6A5B68002B03D0034B21
S11314E01B6A5B68984700BF80BD00BF8C15002055
S11314F080B586B000AF786002F0FAFD78610B48E1
S1131500FFF7E7FA3861802279683869FFF794FABF
S1131510F8600E22F9683869FFF7BAFB786902F0BF
S1131520F7FD00BF1837BD4680BD00BFBC150020C5
S113153090B583B000AF144B1B6A002B19D0124B2B
S11315401B6A1B68002B14D00F4B1B6A1B6898473F
S1131550C7E900013868D7E900124FF000034FF0E3
S11315600004130000241A4601460D20FFF708FD6D
S113157005E0064B1B6819460C20FFF7C9FC00BFA9
S11315800C37BD4690BD00BF8C150020041000E050
S113159080B586B000AF02F0ABFDF8601948FFF7E4
S11315A098FAB860BB687B60174B1B68C3F30803E9
S11315B03B607B687B613B683B610BE03B69DAB273
S11315C07B69591C796162F07F02D2B21A703B695F
S11315D0DB093B613B697F2BF0D87B695A1C7A613C
S11315E03A69D2B21A707B697B6002227968B86862
S11315F0FFF74EFBF86802F08BFD00BF1837BD46BD
S113160080BD00BFBC15002004ED00E080B582B0B1
S113161000AF02F06DFD78600748FFF75AFA3860B2
S1131620032239683868FFF733FB786802F070FDED
S113163000BF0837BD4680BDBC15002080B588B00A
S113164000AF786002F054FD78611A48FFF741FA60
S113165038613B69FB60184B1B697A68D31A9B0895
S11316607B60FB68FB617B68BB610BE0BB69DAB242
S1131670FB69591CF96162F07F02D2B21A70BB692E
S1131680DB09BB61BB697F2BF0D8FB695A1CFA618B
S1131690BA69D2B21A70FB69FB600822F96838692A
S11316A0FFF7F6FA786902F033FD00BF2037BD4634
S11316B080BD00BFBC1500208C15002080B588B00B
S11316C000AF786002F014FD78611A48FFF701FA60
S11316D038613B69FB60184B1B697A68D31A9B0815
S11316E07B60FB68FB617B68BB610BE0BB69DAB2C2
S11316F0FB69591CF96162F07F02D2B21A70BB69AE
S1131700DB09BB61BB697F2BF0D8FB695A1CFA610A
S1131710BA69D2B21A70FB69FB600422F9683869AD
S1131720FFF7B6FA786902F0F3FC00BF2037BD4634
S113173080BD00BFBC1500208C15002080B588B08A
S113174000AF786002F0D4FC78611A48FFF7C1F961
S113175038613B69FB60184B1B697A68D31A9B0894
S11317607B60FB68FB617B68BB610BE0BB69DAB241
S1131770FB69591CF96162F07F02D2B21A70BB692D
S1131780DB09BB61BB697F2BF0D8FB695A1CFA618A
S1131790BA69D2B21A70FB69FB600622F96838692B
S11317A0FFF776FA786902F0B3FC00BF2037BD4634
S11317B080BD00BFBC1500208C15002080B58AB008
S11317C000AF7860396002F093FC78612748FFF736
S11317D080F938613B69FB60254B1B697A68D31A31
S11317E09B087B60FB687B627B683B620BE03B6A27
S11317F0DAB27B6A591C796262F07F02D2B21A7043
S11318003B6ADB093B623B6A7F2BF0D87B6A5A1C3C
S11318107A623A6AD2B21A707B6AFB60FB68FB6137
S11318203B68BB610BE0BB69DAB2FB69591CF96127
S113183062F07F02D2B21A70BB69DB09BB61BB697B
S11318407F2BF0D8FB695A1CFA61BA69D2B21A70BC
S1131850FB69FB600722F9683869FFF719FA7869B0
S113186002F056FC00BF2837BD4680BDBC150020E1
S11318708C15002080B588B000AF7860396002F024
S113188037FC78611B48FFF724F938613B69FB603A
S1131890FB68FB61184B1B697A68D31A9B08BB6110
S11318A00BE0BB69DAB2FB69591CF96162F07F0293
S11318B0D2B21A70BB69DB09BB61BB697F2BF0D85C
S11318C0FB695A1CFA61BA69D2B21A70FB69FB60EF
S11318D080223968F868FFF7AFF8F8601922F968D0
S11318E03869FFF7D5F9786902F012FC00BF203798
S11318F0BD4680BDBC1500208C15002080B483B08B
S113190000AF7860054B1B697A68D31A9B081846A8
S11319100C37BD465DF8047B704700BF8C15002072
S113192080B58CB000AF0346FB71394B1B68002BAC
S113193069D0374B1B68FB620023BB6208E0FB6A7B
S11319401B69FB62FB6A002B07D0BB6A0133BB62D5
S1131950FB79BA6A9A42F2D300E000BFFB6A002B1B
S113196051D002F0C5FB78612A48FFF7B2F838611C
S11319703B69FB60FB687B62FB793B620BE03B6A83
S1131980DAB27B6A591C796262F07F02D2B21A70B1
S11319903B6ADB093B623B6A7F2BF0D87B6A5A1CAB
S11319A07A623A6AD2B21A707B6AFB60FB68FB61A6
S11319B0FB6A9B68BB610BE0BB69DAB2FB69591C2B
S11319C0F96162F07F02D2B21A70BB69DB09BB61B4
S11319D0BB697F2BF0D8FB695A1CFA61BA69D2B291
S11319E01A70FB69FB60FB6A1B6880221946F86861
S11319F0FFF722F8F8601622F9683869FFF748F90A
S1131A00786902F085FB00BF3037BD4680BD00BF5A
S1131A10B4150020BC15002080B582B000AF0C4B7B
S1131A201B68002B0FD00A4B1B687B607B68DB684C
S1131A30002B02D07B68DB6898477B681B697B605E
S1131A407B68002BF2D100BF0837BD4680BD00BFC4
S1131A50B415002080B586B000AF02F049FBF860F1
S1131A601748FFF736F8B860BB687B607B687B611A
S1131A70144B1B783B610BE03B69DAB27B69591C60
S1131A80796162F07F02D2B21A703B69DB093B6173
S1131A903B697F2BF0D87B695A1C7A613A69D2B2D0
S1131AA01A707B697B601B227968B868FFF7F0F8CD
S1131AB0F86802F02DFB00BF1837BD4680BD00BF9B
S1131AC0BC150020B815002080B58AB000AF78603E
S1131AD002F00EFB78612748FEF7FBFF3861802295
S1131AE079683869FEF7A8FFF860FB687B62012318
S1131AF03B620BE03B6ADAB27B6A591C796262F0A2
S1131B007F02D2B21A703B6ADB093B623B6A7F2BCD
S1131B10F0D87B6A5A1C7A623A6AD2B21A707B6A2B
S1131B20FB60FB68FB610023BB610BE0BB69DAB2BD
S1131B30FB69591CF96162F07F02D2B21A70BB6969
S1131B40DB09BB61BB697F2BF0D8FB695A1CFA61C6
S1131B50BA69D2B21A70FB69FB601A22F968386953
S1131B60FFF796F8786902F0D3FA00BF2837BD462C
S1131B7080BD00BFBC15002080B500AF0448FFF74E
S1131B80B7FC0448FFF7B4FC00F078F900BF80BD4F
S1131B9084B50000B4B5000098B500AF094801F061
S1131BA0F1F90446074801F0EDF90146064B074AEE
S1131BB02046FFF745F94FF00050FFF77FF900BFCB
S1131BC098BD00BFF8410020791B00006CB60000EE
S1131BD0F0B585B002AF00237B6036E01F497A6818
S1131BE013469B0013449B000B4418681B497A68F6
S1131BF013469B0013449B000B4404331C68174991
S1131C007A6813469B0013449B000B4408331B78EB
S1131C101D4612497A6813469B0013449B000B44EB
S1131C200C331B681E460D497A6813469B00134407
S1131C309B000B4410331B68009333462A4621460D
S1131C4000F0B2F87B6801337B60054B1B687A684F
S1131C509A42C3D300BF0C37BD46F0BDA016002086
S1131C602019002090B585B000AF01F080F9F8602C
S1131C70F868FEF703FBC7E90001D7E9003418460A
S1131C8021461437BD4690BD80B582B000AF786060
S1131C907868FFF753FD00BF0837BD4680BD80B5A7
S1131CA082B000AF786004217868FFF787FD786818
S1131CB0FFF744FD00BF0837BD4680BD80B582B044
S1131CC000AF78607868FFF7F9FC00BF0837BD46BD
S1131CD080BD80B582B000AF786004217868FFF7DA
S1131CE06DFD00BF0837BD4680BD000080B586B0DD
S1131CF002AFF860B9603B601346FB71274B1B6869
S1131D001F2B03D92648FFF7DFFE43E0234B1A6855
S1131D10244913469B0013449B000B44FA681A6041
S1131D201E4B1A681F4913469B0013449B000B4427
S1131D300433BA681A60194B1A681A4913469B008F
S1131D4013449B000B440833FA791A70134B1A6836
S1131D50144913469B0013449B000B440C333A680C
S1131D601A600E4B1A680F4913469B0013449B00DC
S1131D700B441033BA691A60084B1B680133074AD5
S1131D801360FA793968BB6900930B46B968F8683F
S1131D9000F00AF81037BD4680BD00BF20190020AE
S1131DA0C8B50000A016002080B58AB000AFF86066
S1131DB0B9607A603B6007F11403142200211846CD
S1131DC009F0A5FBFB687B61BB68BB617B68FB61B9
S1131DD03B683B623B6B7B6207F114031846FFF7D9
S1131DE091FA00BF2837BD4680BD000080B584B09D
S1131DF000AFF860B9607A607968B868FFF73AFDB7
S1131E00B868FFF77BFD03461946F868FFF780F8CA
S1131E10174B1B68FF2B03D91648FFF755FE24E028
S1131E20134B1A68144913465B0013449B000B447C
S1131E30BA681A600E4B1A680F4913465B001344C4
S1131E409B000B4404337A681A60094B1A680A49E8
S1131E5013465B0013449B000B44083300221A60B2
S1131E60034B1B680133024A13601037BD4680BD23
S1131E702425002018B600002419002080B582B063
S1131E8000AF00237B602BE01A497A6813465B009D
S1131E9013449B000B4408331B68002B1DD11549C8
S1131EA07A6813465B0013449B000B44186811497D
S1131EB07A6813465B0013449B000B4404331B688D
S1131EC01946FFF7D7FC0B497A6813465B001344A5
S1131ED09B000B44083301221A607B6801337B604A
S1131EE0054B1B687A689A42CED300BF0837BD46BB
S1131EF080BD00BF241900202425002080B483B0B5
S1131F0000AF78607B6800221A6000BF0C37BD46C2
S1131F105DF8047B7047000080B582B000AF786044
S1131F20144B01221A707B68002B01D101F01CF8BC
S1131F307B6800221A70104B1A687B685A600F4B3A
S1131F401A687B689A607B680D4ADA607B68B722FE
S1131F501A617B680B4A5A6100F002FA00F0F8F942
S1131F60786800F057FF7B681B78002B0837BD4664
S1131F7080BD00BF2825002054DD0000A0DF000044
S1131F8074B60000F0B6000080B400AF034B1B68C9
S1131F901846BD465DF8047B704700BF2C25002021
S1131FA080B485B000AF03460A46FB711346BB718B
S1131FB00023FB73FB79162B63D801A252F823F09C
S1131FC01D200000232000002920000029200000FB
S1131FD0292000002F2000003520000035200000BB
S1131FE0352000003B200000412000004720000075
S1131FF04D20000053200000532000005320000017
S1132000652000006B200000712000007720000094
S1132010592000005F2000007D2000000123FB7395
S113202030E00123FB732DE00123FB732AE001233D
S1132030FB7327E00123FB7324E00123FB7321E0FE
S11320400123FB731EE00123FB731BE00123FB73DD
S113205018E00123FB7315E00123FB7312E0012355
S1132060FB730FE00123FB730CE00123FB7309E016
S11320700123FB7306E00123FB7303E00123FB73DD
S113208000E000BFFB7B18461437BD465DF8047BB7
S1132090704700BF80B58EB000AFF860B9607A6059
S11320A00023FB627B68002B01D100F05DFF274B0E
S11320B01B68002B08D1786800F056F87B681B7801
S11320C0002B01D0FB6A3DE0204B1B687968184661
S11320D000F04EFA38637B681B78002B01D0FB6A52
S11320E030E03B6B7A68F968184604F0C5FC7B68FD
S11320F01B78002B17D1BB68002B09D0BB681B7859
S113210003F00103002B03D0012387F8373002E0EA
S1132110002387F837303B6B97F8372083F8342057
S11321203B6BFB620DE0094B1B68184607F1140377
S11321301A46396B00F012FB3B7D002B01D000F0F6
S113214013FFFB6A18463837BD4680BD3025002092
S113215080B400AF034B1B681846BD465DF8047B92
S1132160704700BF7825002080B588B004AF786040
S11321707B68002B01D100F0F7FE7B6800221A7007
S11321805E4B1A687B685A605D4B1A687B689A607C
S11321907B685C4ADA607B6840F6B5021A617B684A
S11321A0594A5A61786803F04FFB7B681B78002B0F
S11321B003D0786803F0D4FB9DE0544B1B68002BDC
S11321C040F09580FFF7E0FEF8607B68B422F96880
S11321D04F4800F053F902464C4B1A607B681B7859
S11321E0002B03D0786803F0BBFB84E0474B1B68EB
S11321F019467B6803934FF0FF3302930023019346
S1132200042300933823FA68424800F05FF97B689E
S11322101B78002B03D0786803F0A2FB6BE03B4BE8
S11322201B6803F124017B6803934FF0FF3302938F
S113223000230193042300932C23FA68364800F00A
S113224045F97B681B78002B03D0786803F088FB82
S113225051E02E4B1B6803F16C017B6803934FF034
S1132260FF33029300230193042300933823FA6875
S11322702A4800F02BF97B681B78002B03D0786880
S113228003F06EFB37E0214B1B6803F190017B6880
S113229003934FF0FF33029300230193042300932D
S11322A00123FA681E4800F011F97B681B78002BA3
S11322B003D0786803F054FB1DE0144B1B6803F152
S11322C048017B6803934FF0FF330293002301938B
S11322D0042300932423FA68124800F0F7F87B687B
S11322E01B78002B03D0786803F03AFB03E078688E
S11322F003F036FB00BF1037BD4680BD54DD00003F
S1132300A0DF0000FCB6000004B800003025002067
S11323109CB70000B0B70000C0B70000D0B7000001
S1132320E0B70000F4B7000080B584B000AF786077
S113233001F0DEFEF860054A7B681360F86801F07E
S1132340E7FE00BF1037BD4680BD00BF3425002026
S113235080B500AF0120FFF7E7FF00BF80BD00009C
S113236080B586B000AF3B461946064800F00CF82D
S11323703B78002B01D000F0F7FD00BF1837BD46B5
S113238080BD00BF1000002080B584B000AF78602D
S113239039603B68002B01D100F0E6FD7B68002B1F
S11323A015D13B680A221A702F4B9A6A3B685A600F
S11323B02E4B9A6A3B689A603B682D4ADA603B6808
S11323C040F2B7221A613B682A4A5A61FEE701F0DB
S11323D08FFEB860284B1B68FB601FE0FA687B68BF
S11323E09A4218D1B86801F093FE3B6815221A701E
S11323F01D4B5A6D3B685A601C4B5A6D3B689A6082
S11324003B681B4ADA603B6840F2BE221A613B68B3
S1132410184A5A6124E0FB68DB68FB60FB68002B08
S1132420DCD1154B1A687B68DA60134A7B68136049
S1132430B86801F06DFE3B6800221A700A4B1A68F6
S11324403B685A60094B1A683B689A603B68084AC3
S1132450DA603B6840F2C9221A613B68054A5A6156
S11324601037BD4680BD00BF54DD0000A0DF000072
S113247010B8000088B800001042002080B58AB06F
S113248004AFF860B9607A603B60BB687B613B680D
S1132490002B01D100F068FD7B69002B01D10A4BB0
S11324A07B613B680293002301930123009304237F
S11324B07A687969F86800F0F1F938613B6918467F
S11324C01837BD4680BD00BF1000002080B58AB01B
S11324D004AFF860B9607A603B607B687B61FB6A3B
S11324E0002B01D100F040FDBB68002B15D1FB6A25
S11324F00A221A70194B9A6AFB6A5A60184B9A6A34
S1132500FB6A9A60FB6A174ADA60FB6A40F212427D
S11325101A61FB6A144A5A61FEE77B69002B01D1F8
S1132520124B7B61BB6800221A70BB680022DA611F
S1132530BB6800221A62FB6A0393BB6A02937B6A3C
S113254001933B6A00933B687A69B968F86800F0C4
S1132550B9FA00BF1837BD4680BD00BF54DD000086
S1132560A0DF000010B8000094B8000010000020A4
S113257090B58BB004AF786039603B68002B01D113
S113258000F0F2FC7B68002B15D13B680A221A701C
S11325906E4B9A6A3B685A606D4B9A6A3B689A60C4
S11325A03B686C4ADA603B6840F2D5421A613B688A
S11325B0694A5A61FEE701F09BFD78617B685B69BB
S11325C0B3F1FF3F1FD07B689A697B685B699A42CD
S11325D019D3786901F09CFD3B6818221A705B4B93
S11325E01A6E3B685A605A4B1A6E3B689A603B6895
S11325F0584ADA603B684FF49C621A613B68564A59
S11326005A6100239DE07B689B695A1C7B689A6130
S11326107B681B69002B2DD07B681B69FB607B6882
S11326201B7803F00203002B02D1FB681B6805E052
S11326307B689B68043BFA6813441B687A681361DF
S1132640786901F065FD3B6800221A703F4B1A68F7
S11326503B685A603E4B1A683B689A603B683D4A47
S1132660DA603B6840F2EF421A613B683A4A5A61C9
S1132670FB6866E0786901F04BFD00233B617B68F1
S113268059687B6898687B68DC687B681B7803F012
S11326900103002B03D07B685B681B6900E0012306
S11326A03A68029200220192009323460246386956
S11326B000F0F4F8F8603B681B78002B0CD001F0B4
S11326C017FD78617B689B695A1E7B689A617869FB
S11326D001F01EFD002334E07B68DB69002B2FD062
S11326E07B68DC697B6859687B681B6AFA68786870
S11326F0A0470346FB72FB7A012B21D001F0F8FCC2
S113270078617B689B695A1E7B689A61786901F0DD
S1132710FFFC3B681A221A700C4B9A6E3B685A6095
S11327200B4B9A6E3B689A603B680A4ADA603B68D6
S113273040F219521A613B68074A5A61002300E0CB
S1132740FB6818461C37BD4690BD00BF54DD000031
S1132750A0DF000010B80000A8B8000080B586B063
S113276000AFF860B9607A607B68002B01D100F09B
S1132770FBFBFB68002B15D17B680A221A70434BC4
S11327809A6A7B685A60424B9A6A7B689A607B6853
S1132790404ADA607B6840F23B521A617B683E4AE9
S11327A05A61FEE7BB68002B15D17B680A221A70B8
S11327B0364B9A6A7B685A60354B9A6A7B689A6092
S11327C07B68344ADA607B6840F23C521A617B6869
S11327D0314A5A61FEE701F08BFC7861FB689B6922
S11327E0002B18D1786901F093FC7B6817221A70CA
S11327F0264BDA6D7B685A60254BDA6D7B689A60EC
S11328007B68244ADA607B6840F245521A617B682F
S1132810214A5A6137E0FB689B695A1EFB689A613A
S1132820786901F075FCFB681B7803F00203002B48
S113283005D0FB689B68043BBA68134400E0BB689E
S11328403B6101F055FC7861FB681A693B691A60C9
S1132850FB68BA681A61786901F05AFC7B68002247
S11328601A700A4B1A687B685A60094B1A687B68AD
S11328709A607B68074ADA607B6840F255521A61B5
S11328807B68054A5A611837BD4680BD54DD000097
S1132890A0DF000010B80000BCB8000080B588B00C
S11328A002AFF860B9607A603B607B68002B15D199
S11328B0BB6A08221A70374B1A6ABB6A5A60364BD5
S11328C01A6ABB6A9A60BB6A344ADA60BB6A40F22D
S11328D0C6621A61BB6A324A5A61FEE73B68002B42
S11328E005D03B685A1E3B681340002B02D03B685E
S11328F0002B01D1012300E00023002B15D1BB6A7A
S113290008221A70234B1A6ABB6A5A60224B1A6A4D
S1132910BB6A9A60BB6A214ADA60BB6A40F2CA6247
S11329201A61BB6A1E4A5A61FEE701F0E1FB786155
S1132930BB6A01937B6A00933B6A3A687968B8681A
S113294000F030F83861BB6A1B78002B19D0786925
S113295001F0DEFBBB6A16221A700E4B9A6DBB6A3D
S11329605A600D4B9A6DBB6A9A60BB6A0B4ADA6077
S1132970BB6A40F2D5621A61BB6A094A5A610023F4
S113298003E0786901F0C4FB3B6918461837BD467B
S113299080BD00BF54DD0000A0DF000010B80000BF
S11329A0D0B8000080B48BB000AFF860B9607A6032
S11329B03B607B68002B01D07B6800E004233A680D
S11329C0934238BF13467B62FB689B681A467B6A56
S11329D05B421A40FB689B6819467B6A013B0B40CB
S11329E0002B01D07B6A00E0002313443B623A6A67
S11329F0BB681A443B685B421A40396ABB68194495
S1132A003B68013B0B40002B01D03B6800E00023F6
S1132A101344FB61FB685B681A46FB689B68D31A26
S1132A200133BB61FB689B681A46FB699B1A7B6197
S1132A30BA697B699A421ED23B6B002B04D07A6937
S1132A40BB69D21A3B6B1A607B6B16221A70194B46
S1132A509A6D7B6B5A60184B9A6D7B6B9A607B6B9B
S1132A60164ADA607B6B4FF4E4621A617B6B144A9A
S1132A705A61002318E0FA69FB689A607B6B0022B4
S1132A801A700C4B1A687B6B5A600B4B1A687B6B81
S1132A909A607B6B094ADA607B6B40F226721A619A
S1132AA07B6B074A5A613B6A18462C37BD465DF872
S1132AB0047B704754DD0000A0DF000010B8000064
S1132AC0E8B8000090B593B004AFF860B9607A60DC
S1132AD03B603B68002B15D17B6D08221A70924B2A
S1132AE01A6A7B6D5A60914B1A6A7B6D9A607B6D92
S1132AF08F4ADA607B6D40F291721A617B6D8D4A68
S1132B005A61FEE73B6DB3F1FF3F03D0FA6C3B6DB6
S1132B109A4201D8012300E00023002B15D17B6DDC
S1132B2008221A70804B1A6A7B6D5A607F4B1A6AAE
S1132B307B6D9A607B6D7E4ADA607B6D40F29572A4
S1132B401A617B6D7B4A5A61FEE7BB6C002B08D08F
S1132B50BB6C5A1EBB6C1340002B02D1BB6C032B05
S1132B6002D8BB6C002B01D1012300E00023002B11
S1132B7015D17B6D08221A706B4B1A6A7B6D5A60F3
S1132B806A4B1A6A7B6D9A607B6D694ADA607B6D69
S1132B9040F29A721A617B6D664A5A61FEE7BB6C19
S1132BA0002B01D0BB6C00E00423FB61BB681B78E5
S1132BB003F00203002B10D03B6823F003033A68B0
S1132BC002F00302002A01D1002200E0042213448F
S1132BD03B633B6B04333B6304E03B68042B38BF2B
S1132BE004233B63FB6C002B00F0DF80BB681B7885
S1132BF003F00103002B02D1FB69BB6206E07B6892
S1132C001B69FA69934238BF1346BB62BB6A5A42D6
S1132C103B6B1A40BB6A591E3B6B0B40002B01D027
S1132C20BB6A00E000231344BB61BB69FA6C02FB7E
S1132C3003F37B623A6BBB69D31A7A6A13447B62EF
S1132C40BB681B7803F00103002B11D07B681B6960
S1132C505A427B6A1A407B681B69591E7B6A0B4087
S1132C60002B02D07B681B6900E0002313447B62C5
S1132C707B6D02930023019301230093BB6A7A6A5C
S1132C807968F868FFF70AFE78637B6D1B78002B80
S1132C9040F0B380BB687A6B1A61BB681B7803F0A1
S1132CA00203002B02D17B6B3B620EE03B6823F0F6
S1132CB003033A6802F00302002A01D1002200E073
S1132CC0042213447A6B13443B620123FB623EE00B
S1132CD03B6A796BBA690A441A60BB68DB69002BEA
S1132CE02AD0BB68DC69BB681B6A7A6B7968B868F0
S1132CF0A0470346BB75BB7D012B1DD07B6D1A22FB
S1132D001A70094B9A6E7B6D5A60084B9A6E7B6DF4
S1132D109A607B6D064ADA607B6D40F2D7721A6165
S1132D207B6D044A5A6169E054DD0000A0DF0000B5
S1132D3010B8000000B900003A6ABB6913443B6252
S1132D407A6BBB6913447B63FB6A0133FB62FA6AE7
S1132D50FB6C9A42BCD33B6A00221A60BB68DB69F5
S1132D60002B25D0BB68DC69BB681B6A7A6B796869
S1132D70B868A0470346FB75FB7D012B18D07B6D1B
S1132D801A221A701F4B9A6E7B6D5A601E4B9A6EF4
S1132D907B6D9A607B6D1D4ADA607B6D40F2E77251
S1132DA01A617B6D1A4A5A6128E0BB6800221A61D5
S1132DB0BB687A685A60BB683A6B9A60BB68FA6908
S1132DC0DA60BB683A6D5A61BB6800229A617B6D18
S1132DD000221A700B4B1A687B6D5A600A4B1A68F2
S1132DE07B6D9A607B6D094ADA607B6D40F2FA7202
S1132DF01A617B6D064A5A6100E000BF3C37BD464C
S1132E0090BD00BF54DD0000A0DF000010B800003A
S1132E1000B9000090B589B004AF78607B68002BDE
S1132E2001D100F0A1F87B6800221A70424B1A68A5
S1132E307B685A60414B1A687B689A607B68404A99
S1132E40DA607B68C4221A617B683E4A5A613E4B51
S1132E505B68002B6DD000210220FFF7A1F8034628
S1132E60FB7300210320FFF79BF803461A46FB7B04
S1132E701340FB7300210420FFF792F803461A461F
S1132E80FB7B1340FB73FB7B012B14D07B68062276
S1132E901A70294B9A697B685A60284B9A697B6837
S1132EA09A607B68264ADA607B68CA221A617B686A
S1132EB0244A5A61FEE7FFF767F8B8607B682C2262
S1132EC0B9682248FFF7DAFA0246214B1A607B6898
S1132ED01B78002B28D11E4B1B68181D1A4B1B682E
S1132EE0194A52687968039102920193042300936A
S1132EF00823BA6801461748FFF7E8FA7B681B788D
S1132F00002B13D1124B1C687A6800211248FFF77A
S1132F10C1F8A0627B681B78002B09D10C4B1B689D
S1132F201846FEF7EBFF04E000BF02E000BF00E03C
S1132F3000BF1437BD4690BD54DD0000A0DF000083
S1132F401CB90000F4B9000024000020A4B900005A
S1132F5038250020B8B90000D0B9000080B500AF12
S1132F6000F064F800BF80BD80B400AFFEE780B518
S1132F7082B000AFFDF772F978607B6818460837B5
S1132F80BD4680BD80B584B000AF78607B68002BFF
S1132F9001D1FFF7E9FF184B1B68FB60FB68002BAE
S1132FA001D0002200E009227B681A70FB68002B24
S1132FB001D0002300E00923104A52F823207B6843
S1132FC05A60FB68002B01D0002300E009230C4A5F
S1132FD052F823207B689A607B680A4ADA607B682F
S1132FE04FF4FE721A617B68074A5A61FB681846FF
S1132FF01037BD4680BD00BF1462002054DD0000C0
S1133000A0DF0000ECE1000060E2000080B483B0C7
S113301000AF7860044A7B68136000BF0C37BD467C
S11330205DF8047B704700BF1462002080B500AFD8
S1133030034B00221A60FDF7EFF800BF80BD00BF0C
S11330401462002080B487B000AFF860B9607A6081
S1133050FB6803F10473DA00BB6813449B007B61D3
S11330607B697A681A6000BF1C37BD465DF8047B33
S1133070704780B485B000AF786039607B6803F135
S11330800473DA003B6813449B00FB60FB681B6815
S113309018461437BD465DF8047B704780B483B08E
S11330A000AF786001227B6802FA03F318460C37FC
S11330B0BD465DF8047B704780B582B000AF786090
S11330C07868FFF7EBFF034618460837BD4680BD16
S11330D080B500AF00BF12210348FFF7CAFF0346C3
S11330E0002BF8D100BF80BD04300E4080B500AF86
S11330F0FFF7EEFF034B5B681B0C03F00303DBB22B
S1133100184680BD00300E4080B584B000AF7860B2
S11331100123FB607B68124A934204D80023FB60BE
S11331200023BB6008E07B680E4A934202D8012367
S1133130BB6001E00223BB60FA6810210A48FFF774
S113314081FF094BD3F8003123F08072BB681B0662
S113315005491343C1F8003100BF1037BD4680BD97
S11331600048E8010090D00300400E4080B483B0D2
S113317000AF054B1B687B607B6818460C37BD4667
S11331805DF8047B704700BF2C00002080B582B03E
S113319000AFFDF765F97860064BD3F800311B0AE0
S11331A003F01F0301337A6802FB03F31846083760
S11331B0BD4680BD00400E4080B582B000AF0D48D2
S11331C000F032FB0346FB70FB78072B05D0092B7C
S11331D007D1FDF745F9786006E0FFF7C7FF78608F
S11331E002E000237B6000BF7B6818460837BD46B9
S11331F080BD00BF06000E0080B584B000AF7860CB
S11332007B68002B1CD11B4800F00EFB0346FB72AD
S113321000BFFB7A013B072B23D801A252F823F00D
S11332204532000063320000633200005332000074
S113323063320000633200004B3200005B32000056
S1133240002312E00023FB600EE0FFF78FFFF8601D
S11332500AE0FDF73DF9F86006E0FFF797FFF86034
S113326002E00023FB6000BFFB6818461037BD4630
S113327080BD00BFB800320080B485B000AF786074
S113328039601E4B5B6803F04073FB600023BB6036
S113329012E01B4ABB68DB0013441A793B68DBB2BB
S11332A09A4206D1164ABB6852F833307A689A4279
S11332B006D9BB680133BB60BB68042BE9D900E0C5
S11332C000BFBB68052B02D10323FB6005E00C4A59
S11332D0BB68DB0013445B79FB60FB681B06FB6087
S11332E0064B5B6823F040720449FB6813434B6050
S11332F000BF1437BD465DF8047B704700000E40E4
S113330074E2000080B582B000AF0E4B1B6C002B42
S113331014BF01230023FB710A4B41F671321A6476
S1133320FDF794F8034600211846FFF7A5FFFB7943
S1133330002B02D0034B00221A6400BF0837BD469D
S113334080BD00BF00000E4080B584B000AF78603F
S113335039600C4B1B6C002B14BF01230023FB733F
S1133360084B41F671321A6439687868FFF784FFB4
S1133370FB7B002B02D0034B00221A6400BF1037E2
S1133380BD4680BD00000E4080B487B000AF7860B9
S11333900F237B617B6803333B617B69FB60FA68C5
S11333A03B69934228BF1346BB60BB681B07BB60E5
S11333B0BB6818461C37BD465DF8047B70470000A7
S11333C080B400AF044B5B6A1B0903F00303184687
S11333D0BD465DF8047B704700400E4080B483B066
S11333E000AF7860074B5B6A23F030027B681B01F7
S11333F0044913434B6200BF0C37BD465DF8047BA0
S1133400704700BF00400E4090B585B000AF7860B3
S11334100023BB607B68354A934206D0344A93420A
S113342003D0344A934200D000E000BF786800F033
S1133430FBF90346FB607B682C4A93420DD02C4A6F
S1133440934211D02B4A934200D014E02A4BD3F874
S1133450803003F00703FB600DE0274BD3F8843082
S113346003F00703FB6006E0234BD3F8883003F036
S11334700703FB6000BFFB68042B2ED801A252F89F
S113348023F000BFD534000099340000A1340000BB
S1133490B1340000A9340000FDF73CF8B8601FE027
S11334A0FDF74AF8B8601BE0FDF73DF8B86017E097
S11334B0FCF7ACFF0446104BD3F800311B0E03F0AD
S11334C0010301331846FFF7F7FD0346B4FBF3F39A
S11334D0BB6005E00023BB6002E00023BB6000BFCB
S11334E0BB6818461437BD4690BD00BF03002000DA
S11334F00500240002001E0000400E4080B483B08A
S113350000AF78600A4BD3F8443103F00103002B79
S113351008D100BF064BD3F840217B681340002B31
S1133520F8D100E000BF0C37BD465DF8047B70475E
S113353000400E4080B400AF00BFBD465DF8047B80
S1133540704780B400AF00BFBD465DF8047B704790
S113355080B586B000AF78600B46FB7000233B61FA
S11335607B681B0A03F00F03013B092B44D801A21B
S113357052F823F09D350000A9350000F93500000C
S1133580F9350000A3350000AF350000B93500005F
S1133590F9350000C3350000CF350000184B7B61BE
S11335A018E0184B7B6115E0174B7B6112E0174B59
S11335B07B6101233B610DE0154B7B6110233B6173
S11335C008E0144B7B614FF480333B6102E0124B03
S11335D07B6100BF7B681B0B03F01F03FB603B692F
S11335E0002B02D03869FFF789FFFB781A46F96887
S11335F07869FFF727FD00E000BF1837BD4680BD9E
S113360000400E40B0400E40C0400E40E0400E402E
S1133610E8400E40F0400E4050410E4080B584B06A
S113362000AF78607B6803F47813B3F5A01F7DD0F6
S1133630B3F5A01F1AD8B3F5202F50D0B3F5202F1F
S113364008D8B3F5003F4ED0B3F5802F38D0002B07
S113365032D0D8E0B3F5602F00F0C880B3F5801FF6
S113366000F0C880B3F5402F4CD0CCE0B3F5001F78
S113367000F08B80B3F5001F0AD8B3F5D01F00F01B
S11336808980B3F5F01F4CD0B3F5B01F5CD0BAE01D
S1133690B3F5381F6AD0B3F5381F04D8B3F5101F3B
S11336A000F09F80AFE0B3F5401F00F08680B3F5D3
S11336B0481F00F0A380A6E0FCF7D2FEF860A5E066
S11336C0FCF7CEFEF860544BD3F80C311B0AC3F35D
S11336D008030133FA68B2FBF3F3FB6096E0FCF7EE
S11336E0BFFEF86092E0FCF7BBFEF8604A4BD3F8EB
S11336F008311B0AC3F308030133FA68B2FBF3F37E
S1133700FB6083E0FCF7ACFEF860434BD3F8143164
S11337101B0A03F01F030133FA68B2FBF3F3FB60E7
S113372074E03E48FFF770FEF8606FE03C48FFF736
S11337306BFEF860384BD3F8303103F00303FA68BA
S113374022FA03F3FB6061E03448FFF75DFEF860A2
S1133750314BD3F8203103F00F031846FFF7ACFCCC
S11337600246FB68B3FBF2F3FB604FE02B48FFF724
S11337704BFEF860284BD3F820311B0903F00303F8
S1133780FA6822FA03F3FB6040E02648FFF73CFEA8
S1133790F8603BE02348FFF737FEF8601E4BD3F890
S11337A028311B0903F003031846FFF785FC024682
S11337B0FB68B3FBF2F3FB6028E01A48FFF724FE32
S11337C0F860154BD3F828311B0A03F003030433C4
S11337D01846FFF771FC0246FB68B3FBF2F3FB608B
S11337E014E00F48FFF710FEF8600FE0FFF7E4FC69
S11337F0F8600BE0FFF7BAFCF86007E00020FFF781
S1133800FBFCF86002E00023FB6000BFFB68184685
S11338101037BD4680BD00BF00400E4002001E00B0
S1133820050024000300200080B485B000AF786058
S11338300123FB737B6803F00F03BB60BB68013B90
S1133840072B00F2C48001A252F823F06D38000067
S1133850C3380000F3380000CF39000039390000C4
S113386069390000CF3900008D3900005D4BD3F871
S1133870943003F00703023B052B1ED801A252F833
S113388023F000BFA9380000A33800009D380000D1
S1133890AF380000BB380000B53800000223FB73CA
S11338A00EE00323FB730BE00423FB7308E00B23FC
S11338B0FB7305E00C23FB7302E00523FB7300BFDD
S11338C088E0484BD3F8803003F00703022B06D07E
S11338D0042B07D0012B08D10323FB7308E0022338
S11338E0FB7305E00A23FB7302E00123FB7300BFB3
S11338F070E03C4BD3F8843003F00703013B032B07
S113390016D801A252F823F0193900001F3900001B
S11339102B390000253900000323FB730BE002233D
S1133920FB7308E00A23FB7305E00623FB7302E044
S11339300123FB7300BF4DE02A4BD3F8883003F01A
S11339400703022B06D0042B07D0012B08D1032335
S1133950FB7308E00223FB7305E00A23FB7302E018
S11339600123FB7300BF35E01E4B1B6F03F0010303
S1133970002B04D0012B05D10923FB7305E0072399
S1133980FB7302E00123FB7300BF23E0154BD3F864
S11339905C3103F03003102B0CD0102B02D8002B19
S11339A005D010E0202B08D0302B09D00BE00123E8
S11339B0FB730BE00723FB7308E00423FB7305E0B0
S11339C00823FB7302E00123FB7300BF02E0002322
S11339D0FB7300BFFB7B18461437BD465DF8047BC0
S11339E0704700BF00400E4080B58AB000AF7860D9
S11339F00B46FB7003237B62032387F823300023E9
S1133A00BB6100237B617B68112B19D1FB78042BEC
S1133A1003D1FCF75DFD78610BE0FB78052B08D141
S1133A2000F05AF90246A44B9A4202D900F054F924
S1133A3078617B69002B03D00021786900F0ECFBEE
S1133A407B6803F00F033B613B69013B072B00F2EA
S1133A50298101A252F823F0793A00006D3B00005D
S1133A607F3B0000A53C0000713B0000153C0000BA
S1133A70A53C0000333C0000FB78023B0A2B00F21B
S1133A80138101A252F823F0B53A0000C13A0000B4
S1133A90CD3A0000DF3A0000A93C0000A93C000038
S1133AA0A93C0000A93C0000A93C0000F13A000038
S1133AB0FD3A000004237B62002387F8233023E0CF
S1133AC003237B62012387F823301DE002237B62FA
S1133AD0022387F823307948FFF716FB14E001230B
S1133AE07B62032387F823307448FFF70DFB0BE058
S1133AF005237B62032387F8233005E007237B62D9
S1133B00062387F8233000BF97F82330062B06D00E
S1133B1097F8233001220121184600F0E9F8FFF755
S1133B20F1FBFFF707FD7B69002B01D0FFF7D0FA0B
S1133B30634A7B6A53676348FFF770FD0346184680
S1133B40FFF7E2FAFCF762FCF860FFF7CFFA0346EE
S1133B501946F868FFF7F8FB7B69002B03D10121B4
S1133B60002000F059FBFFF7ECFCA2E0564BBB61D0
S1133B70BB69002B01D0BB6900E0544BBB61BB693E
S1133B80002B01D0BB6900E0514BBB61FB78013BCA
S1133B90092B00F28B8001A252F823F0C53B0000F0
S1133BA0CB3B0000DB3B0000AD3C0000AD3C000023
S1133BB0EB3B0000AD3C0000AD3C0000AD3C000020
S1133BC0073C00000023FB6120E0012201210020CA
S1133BD000F08EF80223FB6118E00122012101208C
S1133BE000F086F80123FB6110E0FCF70FFC0346AC
S1133BF01846FFF789FA012202213648FFF722FA14
S1133C000323FB6102E00423FB6100BFBB69FA6983
S1133C101A604EE0FB78072B02D0092B04D048E051
S1133C20274B00221A6703E0254B01221A6700BFC5
S1133C303FE0FB78013B072B3AD801A252F823F06E
S1133C40613C0000B13C0000B13C0000773C000046
S1133C50B13C0000B13C0000673C0000873C000020
S1133C600023FB6112E001220121042000F040F84E
S1133C700123FB610AE001220121022000F038F84F
S1133C800223FB6102E00323FB6100BF0C4BD3F86A
S1133C905C3123F03002FB691B0109491343C1F86D
S1133CA05C3106E000BF04E000BF02E000BF00E0BA
S1133CB000BF2837BD4680BD002D31010148E80111
S1133CC000400E4000250A0080400E4088400E400F
S1133CD084400E40B0400E4080B400AF034B1B68DC
S1133CE01846BD465DF8047B704700BF0C000020F9
S1133CF080B588B000AF0346FB710B46BB71134619
S1133D007B71FB79042B00F2B88001A252F823F0F6
S1133D106D3D00005B3D0000373D0000253D000087
S1133D20493D000001237B6102233B610123FB61C8
S1133D300023BB6125E004237B6108233B6103234B
S1133D40FB610223BB611CE010237B6120233B61E8
S1133D500523FB610423BB6113E040237B618023C3
S1133D603B610723FB610623BB610AE04FF48073C8
S1133D707B614FF400733B610923FB610823BB6142
S1133D8000BFBB79002B5BD00023FB73FB79022BB4
S1133D9011D1FFF715FB0346002B0CD1394BDB6B1C
S1133DA00123FB73384B5B6A03F00103012B02D13F
S1133DB00120FFF713FB344A7B69136600BFB9691E
S1133DC03248FFF756F90346002BF8D07B79002BD5
S1133DD054D000BFF9692D48FFF74BF90346002B77
S1133DE0F8D0FB79022B49D1FB7B002B46D0264B24
S1133DF05B6A03F00103012B05D10122202102207B
S1133E0000F04AF903E00021022000F0FBF8022050
S1133E1000F03EF8B860012200210220FFF768FF9D
S1133E20B968022000F06EF8174A7B69136600BF78
S1133E30F9691648FFF71DF90346002BF8D01DE079
S1133E40114A3B69136600BF0F4BD3F89030012130
S1133E50BA6901FA02F21340002BF5D17B79002BE9
S1133E600CD000BF084BD3F890300121FA6901FA55
S1133E7002F21340002BF5D100E000BF2037BD460D
S1133E8080BD00BF00300E4000400E4090400E4008
S1133E9080B485B000AF0346FB71FB79013B032B73
S1133EA023D801A252F823F0B93E0000DD3E000001
S1133EB0C53E0000D13E0000114B1B6AC3F308034A
S1133EC0FB6015E00E4B1B6903F07F03FB600FE002
S1133ED00B4B9B6903F07F03FB6009E0084BD3F8AD
S1133EE09C30C3F30A03FB6002E00023FB6000BFC5
S1133EF0FB6818461437BD465DF8047B704700BF65
S1133F0000400E4080B584B000AF03463960FB71B9
S1133F10FB79013B032B6AD801A252F823F000BFBE
S1133F20313F0000B33F00005F3F0000893F0000C5
S1133F303B68C3F308033B6000BF1A212E48FFF718
S1133F4098F80346002BF8D12C4B1B6A23F4FF731B
S1133F5023F0010329493A6813430B6248E03B68A4
S1133F6003F07F033B6000BF18212348FFF781F86B
S1133F700346002BF8D1214B1B6923F07F021F4914
S1133F803B6813430B6133E03B6803F07F033B6002
S1133F9000BF19211848FFF76CF80346002BF8D12D
S1133FA0164B9B6923F07F0214493B6813438B61D2
S1133FB01EE0124BD3F89030104B5B6A23F03003B1
S1133FC00E4A43F0100353623B68DB0903F00F030E
S1133FD01846FFF7D9F9F860084B1A6B084B1340E1
S1133FE03A681A430549FB6813430B6300E000BFBA
S1133FF000BF1037BD4680BD40410E4000400E401A
S113400000F8FF0F80B584B000AF03460A46FB7189
S11340101346BB71FFF7D4F90346002B03D14FF4C9
S11340204003FB6016E0BB79202B04D0302B0AD070
S1134030002B04D00BE04FF40003FB600AE04FF4C4
S11340404003FB6006E04FF44003FB6002E0104BCA
S1134050FB6000BF00BF0F4BD3F89020FB681340F8
S1134060FA689A42F7D1FB6803F48003002B0AD064
S1134070084BD3F8A03003F48063002B14BF012352
S11340800023DBB200E0012318461037BD4680BD93
S1134090FF33E10700400E4080B582B000AF034615
S11340A0FB710B46BB7113467B71FB79022B00D06D
S11340B016E0BB79002B07D00C4B4FF48062C3F899
S11340C0A8200A4ABB7953667B79002B07D0BA79BA
S11340D0FB7911461846FFF795FF034601E000BF40
S11340E0012318460837BD4680BD00BF00400E407E
S11340F080B483B000AFEFF310833B603B687B6018
S113410072B67B6818460C37BD465DF8047B704771
S113411080B483B000AF78607B68002B00D162B6B6
S113412000BF0C37BD465DF8047B704780B487B090
S113413000AFF860B9607A60FB6803F10473DA00D9
S1134140BB6813449B007B617B697A681A6000BF7B
S11341501C37BD465DF8047B704780B485B000AF62
S1134160786039607B6803F10473DA003B681344B8
S11341709B00FB60FB681B6818461437BD465DF85E
S1134180047B704780B500AF00BF12210348FFF7DE
S1134190E4FF0346002BF8D100BF80BD04300E407D
S11341A080B500AFFFF7EEFF034B5B681B0C03F019
S11341B00303DBB2184680BD00300E4080B483B0E8
S11341C000AF7860044A7B68D36200BF0C37BD46F9
S11341D05DF8047B704700BF00300E4080B400AF30
S11341E0034B5B6A1846BD465DF8047B704700BF0D
S11341F000300E4080B483B000AF0346FB71FB79FE
S1134200C3F10203102202FA03F318460C37BD4629
S11342105DF8047B7047000080B584B000AF78601F
S11342200B46FB70154BD3F800311B0A03F01F0338
S11342300133BB607B68002B07D1FCF711F9024600
S1134240BB6802FB03F3FB6001E07B68FB600C4B83
S11342501B78002B09D0FB680A4A934205D8FB78E7
S11342601946022000F010F804E0FB7819460020FB
S113427000F00AF800BF1037BD4680BD00400E4074
S113428044250020FF2C310190B587B000AF0346D0
S11342900A46FB711346BB711B4BD3F800311B0A52
S11342A003F01F0301337B61FCF7DAF83861FFF791
S11342B077FF0346FB73FA7BFB799A421FD03B6975
S11342C07A6902FB03F3BB60FB79022B03D1022161
S11342D03869FFF739F80D4CFB791846FFF78AFF68
S11342E003462361BB79002B01D0FFF74BFFFB7919
S11342F0002B05D100213869FFF726F800E000BF44
S11343001C37BD4690BD00BF00400E4000300E403B
S113431080B400AF01231846BD465DF8047B7047A6
S113432080B582B000AF0C4BDB6E0B4A43F0807358
S1134330D36600210948FFF710FF78607B68002BE3
S113434003D0042000F0A2FC02E0002000F09EFC58
S113435000BF0837BD4680BD00300E404C300E40D3
S113436080B48BB000AF01237B627B6A1B053B6288
S1134370324BDB6C1B0A03F00F03FB61304B1B88D1
S11343801A462F4B1B8828335B08134403F128017A
S1134390FB695A1C13469B001344B1FBF3F3013B26
S11343A0BB61BB697B6107233B613A697B699342CB
S11343B028BF1346BB61BB691B06BB611F4BDB6C8B
S11343C023F0EE62B9693B6A0B431C491343CB6487
S11343D01C4BB3F90030002B29DB1A4BB3F9003026
S11343E0FB81FA89FB8928335B08134403F1280213
S11343F0FB6901335900FB6901335B080B44B2FBD1
S1134400F3F3BB60BB687B6007233B603A687B685F
S1134410934228BF1346BB60BB681B01BB60074BBC
S11344201B6D23F070020549BB6813430B6500BF85
S11344302C37BD465DF8047B704700BF00300E404A
S11344403C2500204025002080B483B000AF786074
S11344500B467B807B689AB2054B1A80054A7B88A1
S1134460138000BF0C37BD465DF8047B704700BF66
S11344703C2500204025002080B483B000AF0346D3
S1134480FB71FB79002B02D0012B04D007E0074B12
S1134490074A9A6503E0054B064A9A6500BF00BFC8
S11344A00C37BD465DF8047B704700BF00300E40FA
S11344B077402057372110B780B485B000AF03464A
S11344C0FB710B46BB7113467B712D4BD3F88031C6
S11344D0FB60BB79032B1DD801A252F823F000BF67
S11344E0F1440000F9440000034500000D450000BC
S11344F0FB68DBB2FB600FE0FB681B0ADBB2FB600E
S11345000AE0FB681B0CDBB2FB6005E0FB681B0EDA
S1134510FB6001E000232CE07B79002B11D1FB68C8
S11345201B03FB60FB6823F47043002B01D00023C2
S11345301FE0144BDB6E23F470421249FB681343F3
S1134540CB667B79012B13D1FB681B03FB60FB68F3
S113455023F47043002B01D000230AE0094BD3F865
S1134560EC3023F470420749FB681343C1F8EC3084
S1134570012318461437BD465DF8047B704700BF1D
S1134580B081E00F00300E4080B489B000AFF86015
S1134590B96011461A460B46FB711346BB710023E2
S11345A0FB610023BB61BB791B02FA79002A01D0AD
S11345B0012200E0002213437B617B6940F2011277
S11345C093422AD0B3F5817F07D2012B19D0012B56
S11345D047D3B3F5807F50D073E040F20122934279
S11345E027D040F20122934203D8B3F5007F50D084
S11345F067E0B3F5407F58D040F20132934224D0B3
S11346005FE0364BD3F87431FB61FB691B0ADBB204
S1134610BB61FB69DBB2FB6153E0304BD3F874310F
S1134620FB61FB691B0EBB61FB691B0CDBB2FB610D
S113463047E02A4BD3F87831FB61FB691B0ADBB2F4
S1134640BB61FB69DBB2FB613BE0244BD3F87831FF
S1134650FB61FB691B0EBB61FB691B0CDBB2FB61DD
S11346602FE01E4BD3F86C31FB61FB691B0ADBB2F4
S1134670BB61FB69DBB2FB6123E0184BD3F86C31FF
S1134680FB61FB691B0EBB61FB691B0CDBB2FB61AD
S113469017E0124BD3F87031FB61FB691B0ADBB2E4
S11346A0BB61FB69DBB2FB610BE00C4BD3F87031EF
S11346B0FB61FB691B0EBB61FB691B0CDBB2FB617D
S11346C000BFFB68FA691A60BB68BA691A6000BF68
S11346D02437BD465DF8047B704700BFB081E00F0E
S11346E080B584B000AF0346FB7100BF364B9B6FAF
S11346F003F00103002BF9D1334B1B6C03F00303CC
S1134700FB60FB68002B04D001220D212F48FFF72A
S11347100DFDFB68DBB2FA799A4208D1FB79002BD4
S11347204ED100220D212948FFF700FD48E0FB6827
S1134730032B02D0FB68002B20D1FB79022B02D083
S1134740FB79012B1AD14FF40020FFF737FD00BF8E
S11347501D4B9B6F03F00103002BF9D11A4B1B6C0B
S113476023F00303184A43F00103136400BFFFF767
S113477035FD034603F40023002BF8D000BF124B91
S11347809B6F03F00103002BF9D10F4B1B6C23F03B
S11347900302FB790C4913430B6400BF0A4B9B6F64
S11347A003F00103002BF9D1FB79002B14BF012383
S11347B00023DBB21A460D210448FFF7B7FC00E0E2
S11347C000BF1037BD4680BD00300E4054300E404F
S11347D080B584B000AF7860484B02229A63474B9F
S11347E09B6B03F00F03022B01D0002381E0FFF742
S11347F08FFD7B685B78012B02D07B685B78022B92
S11348007B68DB884A2B02D80023FB6015E07B68B9
S1134810DB88B3F5FA7F03D24FF08053FB600CE0E2
S11348207B68DB8840F6C312934203D84FF00053F1
S1134830FB6002E04FF04053FB60304BDB6C23F035
S1134840405323F001037A68B2F90C20002A01DBFB
S1134850012100E00021FA680A4328491343CB648C
S1134860264BD3F8EC30254A43F44073C2F8EC30BD
S1134870FFF756FD7B681B891A467B68B3F90C3039
S113488019461046FFF7E0FD7B689A881C4B1A8096
S11348907B689B88184600F08DF97B689B7B1846E3
S11348A0FFF7EAFD7B685B8801220121184600F0CE
S11348B02BF8034683F00103DBB2002B01D0002365
S11348C017E00E4BDB6B0D4A43F48063D3637B68C4
S11348D05B781846FFF704FF7B689B7A202B01D195
S11348E0012300E000231A4605210648FFF71EFCB9
S11348F0012318461037BD4680BD00BF00300E406E
S11349003E2500203C300E4090B595B000AF786055
S11349100B46FB701346BB700023FB6400237B64CF
S113492007F1240300221A605A609A6007F1180301
S113493000221A605A609A6007F10C0300221A6080
S11349405A609A6007F1080300210A461A800A4651
S11349509A707B68B3F5E16F06D37B6840F6B83292
S1134960934201D8012300E0002387F8433097F8ED
S1134970433003F0010387F8433097F8433083F062
S11349800103DBB2002B01D000230AE17B68B3F5FD
S1134990E16F8CBF0123002387F8423097F842303F
S11349A0002B0AD04FF4E163FB6440F6B8337B6418
S11349B07A6CFB6CD31ABB6409E04FF49663FB6416
S11349C04FF4E1637B647A6CFB6CD31ABB6497F895
S11349D04230002B0BD0754BD3F868313B623B6AF5
S11349E01B0E7B613B6A1B0CDBB23B620AE06F4B24
S11349F0D3F868313B623B6A1B0ADBB27B613B6ADA
S1134A00DBB23B626A4BDB6C1B0FDBB203F00303CC
S1134A10DBB23B723B7A97F8422007F10C0107F1B5
S1134A201800FFF7B1FD624BD3F8EC301B0ADBB280
S1134A3003F00303DBB27B727C7A97F8422007F120
S1134A400C03191D07F11803181D2346FFF79CFDDD
S1134A507A68FB6CD31A79693A6A8A1A02FB03F200
S1134A60BB6CB2FBF3F3FB62FA6A3B6A1344FB626E
S1134A707A68FB6CD31AF968BA698A1A02FB03F2E2
S1134A80BB6CB2FBF3F37B627A6ABB6913447B624F
S1134A907A68FB6CD31A3969FA698A1A02FB03F241
S1134AA0BB6CB2FBF3F3BB62BA6AFB691344BB622F
S1134AB0FA6A7B699A4213D8FA6A3B6A9A420FD31C
S1134AC0BA6A3B699A420BD8BA6AFB699A4207D31D
S1134AD07A6AFB689A4203D87A6ABB699A4201D21D
S1134AE000235EE0BB78002B12D0314BDB6D23F446
S1134AF0FE4323F00203FA6A1202134397F842209A
S1134B00002A01D0022200E0002229491343CB6588
S1134B10FB78002B44D0397A97F8423000221846AB
S1134B20FFF7CAFC034683F00103DBB2002B01D07C
S1134B30002336E0797A97F8423001221846FFF7CD
S1134B40BBFC034683F00103DBB2002B01D000233E
S1134B5027E07B6AFB63BB6ABB63BA6BFB6B934264
S1134B6038BF13467B627B6A7B63E7233B633A6B04
S1134B707B6B934228BF13467B620D4B5B6E23F421
S1134B80FF7323F001037A6A5200134397F842201B
S1134B90002A01D0012200E00022054913434B669C
S1134BA0012318465437BD4690BD00BFB081E00FC5
S1134BB000300E4080B584B000AF78600023FB6005
S1134BC0314B1B6F03F00703BB602F4BDB6C03F00F
S1134BD00103002B14D0BB68012B11D97B68132B64
S1134BE002D80423FB6037E07B68132B05D97B686C
S1134BF0272B02D80823FB602EE01023FB602BE058
S1134C00214BDB6C03F00103002B14D1BB68012B97
S1134C1011D87B68092B02D80423FB601CE07B6855
S1134C20092B05D97B68132B02D80823FB6013E0FA
S1134C301023FB6010E0144BDB6C03F00103002B2A
S1134C400AD0BB68012B07D87B68272B02D808231E
S1134C50FB6001E01023FB60FB68013BFB60FB6829
S1134C601A02FB681B031343FB60074BDB6C23F442
S1134C707F420549FB681343CB64FFF771FB00BF18
S1134C801037BD4680BD00BF00300E4080B584B0F3
S1134C9000AF0346FB7100210E48FFF75EFAF8608F
S1134CA0FB68002B02D1FB79012B01D9FB68002B97
S1134CB000BF094B1B6F23F00702FB79064913431E
S1134CC00B67064B1B881846FFF774FF00BF1037AD
S1134CD0BD4680BD4C300E4000300E403E250020C5
S1134CE080B487B000AFF860B9607A60FB6803F104
S1134CF00473DA00BB6813449B007B617B697A68A8
S1134D001A6000BF1C37BD465DF8047B704780B451
S1134D1085B000AF786039607B6803F1C063FB60E5
S1134D20FB683A681A6000BF1437BD465DF8047B1F
S1134D30704780B485B000AF786039607B6803F158
S1134D408063FB60FB683A681A6000BF1437BD4695
S1134D505DF8047B704780B584B000AFF860B9603B
S1134D607A60B968F868FFF7E4FF7968F868FFF7D4
S1134D70CEFF00BF1037BD4680BD000080B483B0B5
S1134D8000AF7860044A7B68C2F8243400BF0C3753
S1134D90BD465DF8047B704700A0004080B582B03A
S1134DA000AF03463960FB71FB79002B1CD0FB7903
S1134DB0012B19D0FB79022B16D0FB79032B13D0CE
S1134DC0FB79042B10D0FB79052B0DD0FB79062B36
S1134DD00AD0FB79072B07D0FB79082B04D0FB7989
S1134DE0092B01D0FB790A2BFA7913465B00134493
S1134DF01B010C3303F1804303F5204301213A687E
S1134E0001FA02F211461846FFF793FF00BF083774
S1134E10BD4680BD80B582B000AF03463960FB71EA
S1134E20FB79002B1CD0FB79012B19D0FB79022BC9
S1134E3016D0FB79032B13D0FB79042B10D0FB790C
S1134E40052B0DD0FB79062B0AD0FB79072B07D055
S1134E50FB79082B04D0FB79092B01D0FB790A2BB1
S1134E60FA7913465B0013441B010C3303F18043AE
S1134E7003F5204301213A6801FA02F2114618466B
S1134E80FFF745FF00BF0837BD4680BD80B586B03B
S1134E9000AFB9607A601A460346FB731346BB73CE
S1134EA000237B61FB7B002B1CD0FB7B012B19D0E7
S1134EB0FB7B022B16D0FB7B032B13D0FB7B042B39
S1134EC010D0FB7B052B0DD0FB7B062B0AD0FB7B84
S1134ED0072B07D0FB7B082B04D0FB7B092B01D0CD
S1134EE0FB7B0A2B7B68072B0ED87B689B000F2269
S1134EF002FA03F1FA7B7B689B0002FA03F31A4679
S1134F002B48FFF728FF10E07B68083B7B617B6937
S1134F109B000F2202FA03F1FA7B7B699B0002FAE1
S1134F2003F31A462348FFF716FF7B68072B10D8B4
S1134F307B689B00032202FA03F1BB6803F00302BF
S1134F407B689B0002FA03F31A461B48FFF703FF32
S1134F500FE07B699B00032202FA03F1BB6803F0B4
S1134F6003027B699B0002FA03F31A461348FFF716
S1134F70F2FEBB7B1A4679681148FFF7B1FE97F839
S1134F8020301A4679680F48FFF7AAFE01227B6891
S1134F9002FA03F31846FFF7F1FE97F824301A4695
S1134FA079680948FFF79CFE00BF1837BD4680BDED
S1134FB000A4004004A4004008A400400CA4004045
S1134FC010A4004014A4004028A4004080B584B07C
S1134FD000AFB9607B600346FB731346BB73FB7B76
S1134FE0002B1CD0FB7B012B19D0FB7B022B16D092
S1134FF0FB7B032B13D0FB7B042B10D0FB7B052BFB
S11350000DD0FB7B062B0AD0FB7B072B07D0FB7B49
S1135010082B04D0FB7B092B01D0FB7B0A2BBB7B29
S1135020002B0DD07B68002B05D0FB7BB96818469C
S1135030FFF7F0FE04E0FB7BB9681846FFF7AEFE0D
S1135040BB68072B20D82E49FA7B13465B00134418
S11350501B010B4404331A68BB689B000F2101FA3F
S113506003F3DB431340B97BBA68920001FA02F2FE
S113507011462348FA7B194313465B0013441B0172
S113508003440433196025E01D49FA7B13465B0091
S113509013441B010B4408331A68BB6803F18043B3
S11350A0083B9B000F2101FA03F3DB4302EA0301EF
S11350B0BA7BBB6803F18043083B9B0002FA03F30D
S11350C00F48FA7B194313465B0013441B01034446
S11350D008331960BB7B002B0DD17B68002B05D0F6
S11350E0FB7BB9681846FFF795FE04E0FB7BB968C3
S11350F01846FFF753FE00BF1037BD4680BD00BF02
S113510000A0004080B400AF00BFBD465DF8047B42
S11351107047000080B584B000AF78607B68002BD6
S113512001D1FDF721FF7F4B5B68002B2CD07D4B19
S11351301B68002B10D17B4B996C7A4B5B689A00EF
S11351407B687948FDF79AF90246784B1A607B68C8
S11351501B78002B04D0EDE1724B1B68734A13607B
S1135160724B1B68724A13606E4B5B68714A136022
S11351706C4B5B689B00704A1360704B1A686E4BF3
S11351801B6813446D4A1360664B1B89002B24D0A3
S1135190644B996C634B1B891A017B686848FDF763
S11351A06DF90246674B1A607B681B78002B40F050
S11351B0B681644B1B68644A13605A4B1A89634B6B
S11351C01A80584B1B891B01614A13605B4B1A6898
S11351D05F4B1B681344594A1360524BDB6A002B24
S11351E041D0504B9B6A002B10D14E4B996C4D4BC8
S11351F0DB6A9A007B685748FDF740F90246564B34
S11352001A607B681B78002B04D093E1454B9B6AA2
S1135210514A1360434B5B6B504A1360414B93F804
S113522030204F4B1A704C4B1B684E4A13603D4B59
S1135230DB6A3C4AD26802FB03F34B4AA2FB03231A
S11352405B094A4A1360374BDB6A494A1360354BA2
S1135250DB6A9B00474A1360384B1A68454B1B684E
S11352601344364A13602F4BDB69002B41D02D4B7E
S11352709B69002B10D12B4B996C2A4BDB699A004C
S11352807B683D48FDF7FAF802463C4B1A607B68A0
S11352901B78002B04D04DE1224B9B69374A1360E5
S11352A0204B93F82020364B1A701E4B5B6A354A0C
S11352B01360324B1B68344A13601A4BDB69194A7A
S11352C0D26802FB03F3284AA2FB03235B092F4A9B
S11352D01360144BDB692E4A1360124BDB699B008D
S11352E02C4A1360154B1A682A4B1B681344134A43
S11352F013600C4BDB6B002B7FD00A4B9B6B002B9A
S11353004ED1084B996C074BDB6B9A007B682248A3
S1135310FDF7B4F80246214B1A607B681B78002B1A
S113532042D007E130000020A0E200002462002007
S1135330482500204C25002050250020A8250020C9
S1135340B4E200001C6200205425002058250020EF
S11353505C250020C8E20000286200207825002097
S11353607C250020802500201F85EB51842500200A
S1135370882500208C250020E4E20000186200202B
S11353806025002064250020682500206C2500206D
S1135390702500207425002000E300002062002016
S11353A0664B9B6B664A1360644B93F84020654BD5
S11353B01A70624B5B6C644A1360614B1B68634AEE
S11353C013605E4BDB6B5D4AD26802FB03F3604AF9
S11353D0A2FB03235B095F4A1360584BDB6B5E4AF5
S11353E01360564BDB6B9B005C4A13605C4B1A6882
S11353F05A4B1B6813445A4A136005F009FB594B76
S113540000221A70584B00221A70584B00221A704E
S1135410574B00221A60574B00221A60564B002249
S11354201A70564B00221A70554B00221A70554BB5
S11354301B68554AA2FB0323DB08544A1360544BF0
S11354401B68002B1DD0534B1B68FB60FB68002BB3
S11354500FD04F4B1B68BB6008E0BB68013BBB60CF
S1135460FB6800221A60FB680433FB60BB68002BF6
S1135470F3D1484B1A68464B1B681946104604F092
S1135480B9FA454B00221A7002F03AF800F0B6FD62
S1135490424B00221A60424B00221A80414B1B8867
S11354A0002B06D0786801F0D9F87B681B78002BB4
S11354B037D13D4B00221A603C4B00221A803C4BF2
S11354C000221A603B4B00221A803B4B00221A60D8
S11354D03A4B00221A80786804F0ECF97B681B7858
S11354E0002B20D1786804F097FB7B681B78002B95
S11354F01BD1786802F020FF7B681B78002B16D143
S1135500786805F04DF87B681B78002B11D100F00A
S113551061FFFFF7F7FD2A4B01221A700AE000BF72
S113552008E000BF06E000BF04E000BF02E000BFE7
S113553000E000BF1037BD4680BD00BF3000002032
S1135540206200209025002094250020982500202A
S11355501F85EB519C250020A0250020A4250020B8
S1135560A82500205A6600204162002034620020F1
S113557040660020486600205065002048650020F1
S1135580B468002078250020CDCCCCCC5C6700200A
S11355904C2500204825002040620020B0670020F0
S11355A0AC67002058250020B8680020B6670020AA
S11355B054670020446600204C6500205867002092
S11355C04465002080B582B000AFFBF7E1FF0C4BCF
S11355D01B78012B10D1FEF78BFD7860094B1B78EB
S11355E0F92B05D8074B1B780133DAB2054B1A7037
S11355F07868FEF78DFD00E000BF0837BD4680BD2A
S1135600416200205A66002080B582B000AF3C4B56
S11356101B78012B02D0FBF7F9FF6DE0FEF768FD64
S11356207860384B1B78002B05D1FBF7EFFF7868C7
S1135630FEF76EFD60E0334B1B78013BDAB2314B71
S11356401A70304B1B78002B05D0FBF7DFFF78680E
S1135650FEF75EFD50E02C4B1B78002B05D0FBF7CA
S1135660D5FF7868FEF754FD46E0284B1B68002BF5
S11356700FD0274B1A68254B1B681946104604F0B7
S113568097F90346FB70FB78012B02D0002005F04C
S1135690E9F901F04FFF03461A461E4B1A701D4BE1
S11356A01B783F2B17D01B4B1B7819461A4A0B4605
S11356B05B000B449B0013441B68184A1360174B90
S11356C01A68174B1B689A4205D1FBF79FFF78684D
S11356D0FEF71EFD10E0114B1B68D3F8B420013215
S11356E0C3F8B4200F4B1B6801330E4A136005F056
S11356F057F97868FEF70CFD0837BD4680BD00BF3A
S1135700416200205A660020346200204C250020AB
S11357104825002048650020446200204866002097
S1135720406600205466002080B582B000AF3C4B38
S11357301B78012B00D0FEE73A4B1B78002B68D175
S1135740394B1B78002B66D1FEF7D2FC786001F050
S1135750F1FE03461A46354B1A70344B1B783F2B27
S113576015D0324B1B781946314A0B465B000B446B
S11357709B0013441B682F4A13602E4B1A682E4B50
S11357801B689A4203D17868FEF7C2FC44E02A4BB6
S11357901B6893F83E30002B04D1274B1B68184636
S11357A0FCF77DFA234B1B68D3F8B4200132C3F80D
S11357B0B420224B1B680133204A13601B4B1B7817
S11357C03F2B05D005F0E7F87868FEF7A1FC1DE053
S11357D0194B1B68174A13607868FEF799FCFEF7AB
S11357E087FC7860164B1B680133154A1360154B10
S11357F01B680133134A13607868FEF789FC0B4B6E
S11358001B78DBB23F2B00D1E9E700BFBFF36F8FFA
S113581002E000BF00E000BF0837BD4680BD00BF06
S1135820416200205A66002034620020486500204E
S11358304462002048660020406600205466002030
S1135840A46700203C62002080B584B000AF78607B
S11358507B68002B01D1FDF787FB3A4B1B78002BAB
S113586017D07B6820221A70374BD3F880207B68CE
S11358705A60364BD3F880207B689A607B68344A40
S1135880DA607B684FF462721A617B68314A5A614C
S1135890FEE7314B1B78012B15D07B6802221A706E
S11358A0294B9A687B685A60284B9A687B689A608F
S11358B07B68274ADA607B6840F28B321A617B6826
S11358C0244A5A61FEE7254B1B78F92B15D97B68CE
S11358D01E221A701C4B9A6F7B685A601B4B9A6F7E
S11358E07B689A607B681A4ADA607B6840F28E3281
S11358F01A617B68174A5A6120E0FEF7F9FBF860E9
S1135900164B1B780133DAB2144B1A70F868FEF7A1
S1135910FFFB7B6800221A700B4B1A687B685A6085
S11359200A4B1A687B689A607B68094ADA607B686C
S113593040F299321A617B68064A5A611037BD46B3
S113594080BD00BF5A66002054DD0000A0DF0000C7
S11359501CE30000A8E30000416200203462002040
S113596080B584B000AF78607B68002B01D1FDF76F
S1135970FBFA4A4B1B78002B17D07B6820221A7045
S1135980474BD3F880207B685A60464BD3F880207D
S11359907B689A607B68444ADA607B6840F2B13283
S11359A01A617B68414A5A61FEE7414B1B78012B1F
S11359B015D07B6802221A70394B9A687B685A604A
S11359C0384B9A687B689A607B68374ADA607B68F0
S11359D04FF46D721A617B68344A5A61FEE7354BA5
S11359E01B78002B15D17B681F221A702C4BDA6FA1
S11359F07B685A602B4BDA6F7B689A607B682A4A13
S1135A00DA607B6840F2B7321A617B68274A5A61D0
S1135A1041E0FEF76DFBF860264B1B78013BDAB2E0
S1135A20244B1A70234B1B78002B1AD0F868FEF70E
S1135A306FFB7B682D221A70194BD3F8B4207B6856
S1135A405A60184BD3F8B4207B689A607B68164A76
S1135A50DA607B6840F2BF321A617B68134A5A618C
S1135A6019E0F868FEF754FBFFF75EFE7B6800223E
S1135A701A700B4B1A687B685A600A4B1A687B6869
S1135A809A607B68084ADA607B6840F2C9321A611E
S1135A907B68064A5A611037BD4680BD5A660020AD
S1135AA054DD0000A0DF00001CE30000B4E30000AC
S1135AB0416200203462002080B584B000AF786079
S1135AC07B68002B01D1FDF74FFA3F4B1B78012B6C
S1135AD015D07B6813221A703C4BDA6C7B685A60D1
S1135AE03B4BDA6C7B689A607B683A4ADA607B6885
S1135AF040F24B421A617B68374A5A61FEE7002341
S1135B00FB81FB890133FB81FB890133FB81FB8929
S1135B100133FB81314B1B88FA899A4215D37B6888
S1135B2009221A70294B5A6A7B685A60284B5A6AB0
S1135B307B689A607B68274ADA607B6840F25C4243
S1135B401A617B68244A5A61FEE7254B1B78002BB7
S1135B5015D07B681F221A701C4BDA6F7B685A6061
S1135B601B4BDA6F7B689A607B681A4ADA607B6841
S1135B7040F25F421A617B68174A5A61FEE701F0FE
S1135B80D9FC03461A46174B1A70164B1A78164B53
S1135B901A70144B1B781946144A0B465B000B44CD
S1135BA09B0013441B68124A1360114B1B68114A73
S1135BB013600B4B01221A7004F0AEFEFDF7D4F90A
S1135BC000BF1037BD4680BD4465002054DD000091
S1135BD0A0DF00001CE30000C4E300005C660020BA
S1135BE04162002048650020506500204462002086
S1135BF0486600204066002080B586B000AFF8609B
S1135C000B467A60FB72174B1B68FA7A83F83C20C8
S1135C10144B1B68002283F83D20124B1B687968E3
S1135C20184600F0B7FBFB68002B0DD0FB68083367
S1135C307B610C4B1B68FA689A630A4B1B68194614
S1135C40786900F0A3F803E0064B1B6800229A630E
S1135C50044B1B681946F86800F006F800BF1837B3
S1135C60BD4680BD4066002080B485B000AF78603A
S1135C7039607B68002B0FD07B685A683B68C3F897
S1135C80E0207B680833FB60FB681B68BB60BB6873
S1135C90DA687B68DA6116E03B6893F83C30022BE3
S1135CA002D0072B05D009E03B680A4AC3F8E0207C
S1135CB009E03B68084AC3F8E02004E03B68074A6F
S1135CC0C3F8E02000BF00BF1437BD465DF8047B75
S1135CD0704700BF90E3000098E30000A4E30000D5
S1135CE080B485B000AF786039603B680E4AC3F871
